{
  "_format": "hh-sol-artifact-1",
  "contractName": "NextCoin",
  "sourceName": "contracts/BankContract.sol",
  "abi": [
    {
      "inputs": [],
      "stateMutability": "nonpayable",
      "type": "constructor"
    },
    {
      "anonymous": false,
      "inputs": [
        {
          "indexed": true,
          "internalType": "address",
          "name": "owner",
          "type": "address"
        },
        {
          "indexed": true,
          "internalType": "address",
          "name": "spender",
          "type": "address"
        },
        {
          "indexed": false,
          "internalType": "uint256",
          "name": "value",
          "type": "uint256"
        }
      ],
      "name": "Approval",
      "type": "event"
    },
    {
      "anonymous": false,
      "inputs": [
        {
          "indexed": true,
          "internalType": "address",
          "name": "previousOwner",
          "type": "address"
        },
        {
          "indexed": true,
          "internalType": "address",
          "name": "newOwner",
          "type": "address"
        }
      ],
      "name": "OwnershipTransferred",
      "type": "event"
    },
    {
      "anonymous": false,
      "inputs": [
        {
          "indexed": true,
          "internalType": "address",
          "name": "from",
          "type": "address"
        },
        {
          "indexed": true,
          "internalType": "address",
          "name": "to",
          "type": "address"
        },
        {
          "indexed": false,
          "internalType": "uint256",
          "name": "value",
          "type": "uint256"
        }
      ],
      "name": "Transfer",
      "type": "event"
    },
    {
      "anonymous": false,
      "inputs": [
        {
          "indexed": true,
          "internalType": "address",
          "name": "owner",
          "type": "address"
        },
        {
          "indexed": false,
          "internalType": "uint256",
          "name": "amount",
          "type": "uint256"
        },
        {
          "indexed": false,
          "internalType": "string",
          "name": "message",
          "type": "string"
        }
      ],
      "name": "additionalTokensMinted",
      "type": "event"
    },
    {
      "anonymous": false,
      "inputs": [
        {
          "indexed": false,
          "internalType": "address",
          "name": "sender",
          "type": "address"
        },
        {
          "indexed": false,
          "internalType": "string",
          "name": "message",
          "type": "string"
        }
      ],
      "name": "storedResponse",
      "type": "event"
    },
    {
      "anonymous": false,
      "inputs": [
        {
          "indexed": true,
          "internalType": "address",
          "name": "owner",
          "type": "address"
        },
        {
          "indexed": false,
          "internalType": "uint256",
          "name": "amount",
          "type": "uint256"
        },
        {
          "indexed": false,
          "internalType": "string",
          "name": "message",
          "type": "string"
        }
      ],
      "name": "tokensBurned",
      "type": "event"
    },
    {
      "anonymous": false,
      "inputs": [
        {
          "indexed": true,
          "internalType": "address",
          "name": "owner",
          "type": "address"
        },
        {
          "indexed": false,
          "internalType": "uint256",
          "name": "amount",
          "type": "uint256"
        },
        {
          "indexed": false,
          "internalType": "string",
          "name": "message",
          "type": "string"
        }
      ],
      "name": "tokensMinted",
      "type": "event"
    },
    {
      "stateMutability": "payable",
      "type": "fallback"
    },
    {
      "inputs": [
        {
          "internalType": "address payable",
          "name": "_to",
          "type": "address"
        },
        {
          "internalType": "uint256",
          "name": "_fund",
          "type": "uint256"
        }
      ],
      "name": "DonateFunds",
      "outputs": [],
      "stateMutability": "payable",
      "type": "function"
    },
    {
      "inputs": [
        {
          "internalType": "address",
          "name": "owner",
          "type": "address"
        },
        {
          "internalType": "address",
          "name": "spender",
          "type": "address"
        }
      ],
      "name": "allowance",
      "outputs": [
        {
          "internalType": "uint256",
          "name": "",
          "type": "uint256"
        }
      ],
      "stateMutability": "view",
      "type": "function"
    },
    {
      "inputs": [
        {
          "internalType": "address",
          "name": "spender",
          "type": "address"
        },
        {
          "internalType": "uint256",
          "name": "amount",
          "type": "uint256"
        }
      ],
      "name": "approve",
      "outputs": [
        {
          "internalType": "bool",
          "name": "",
          "type": "bool"
        }
      ],
      "stateMutability": "nonpayable",
      "type": "function"
    },
    {
      "inputs": [
        {
          "internalType": "address",
          "name": "account",
          "type": "address"
        }
      ],
      "name": "balanceOf",
      "outputs": [
        {
          "internalType": "uint256",
          "name": "",
          "type": "uint256"
        }
      ],
      "stateMutability": "view",
      "type": "function"
    },
    {
      "inputs": [
        {
          "internalType": "uint256",
          "name": "amount",
          "type": "uint256"
        }
      ],
      "name": "burn",
      "outputs": [],
      "stateMutability": "nonpayable",
      "type": "function"
    },
    {
      "inputs": [
        {
          "internalType": "address",
          "name": "account",
          "type": "address"
        },
        {
          "internalType": "uint256",
          "name": "amount",
          "type": "uint256"
        }
      ],
      "name": "burnFrom",
      "outputs": [],
      "stateMutability": "nonpayable",
      "type": "function"
    },
    {
      "inputs": [],
      "name": "communityAdmin",
      "outputs": [
        {
          "internalType": "address",
          "name": "",
          "type": "address"
        }
      ],
      "stateMutability": "view",
      "type": "function"
    },
    {
      "inputs": [],
      "name": "communityName",
      "outputs": [
        {
          "internalType": "string",
          "name": "",
          "type": "string"
        }
      ],
      "stateMutability": "view",
      "type": "function"
    },
    {
      "inputs": [],
      "name": "decimals",
      "outputs": [
        {
          "internalType": "uint8",
          "name": "",
          "type": "uint8"
        }
      ],
      "stateMutability": "view",
      "type": "function"
    },
    {
      "inputs": [
        {
          "internalType": "address",
          "name": "spender",
          "type": "address"
        },
        {
          "internalType": "uint256",
          "name": "subtractedValue",
          "type": "uint256"
        }
      ],
      "name": "decreaseAllowance",
      "outputs": [
        {
          "internalType": "bool",
          "name": "",
          "type": "bool"
        }
      ],
      "stateMutability": "nonpayable",
      "type": "function"
    },
    {
      "inputs": [],
      "name": "depositMoney",
      "outputs": [],
      "stateMutability": "payable",
      "type": "function"
    },
    {
      "inputs": [],
      "name": "getCommunityBalance",
      "outputs": [
        {
          "internalType": "uint256",
          "name": "",
          "type": "uint256"
        }
      ],
      "stateMutability": "view",
      "type": "function"
    },
    {
      "inputs": [],
      "name": "getUserBalance",
      "outputs": [
        {
          "internalType": "uint256",
          "name": "",
          "type": "uint256"
        }
      ],
      "stateMutability": "view",
      "type": "function"
    },
    {
      "inputs": [
        {
          "internalType": "address",
          "name": "spender",
          "type": "address"
        },
        {
          "internalType": "uint256",
          "name": "addedValue",
          "type": "uint256"
        }
      ],
      "name": "increaseAllowance",
      "outputs": [
        {
          "internalType": "bool",
          "name": "",
          "type": "bool"
        }
      ],
      "stateMutability": "nonpayable",
      "type": "function"
    },
    {
      "inputs": [
        {
          "internalType": "address",
          "name": "to",
          "type": "address"
        },
        {
          "internalType": "uint256",
          "name": "amount",
          "type": "uint256"
        }
      ],
      "name": "mint",
      "outputs": [],
      "stateMutability": "nonpayable",
      "type": "function"
    },
    {
      "inputs": [],
      "name": "name",
      "outputs": [
        {
          "internalType": "string",
          "name": "",
          "type": "string"
        }
      ],
      "stateMutability": "view",
      "type": "function"
    },
    {
      "inputs": [],
      "name": "owner",
      "outputs": [
        {
          "internalType": "address",
          "name": "",
          "type": "address"
        }
      ],
      "stateMutability": "view",
      "type": "function"
    },
    {
      "inputs": [],
      "name": "renounceOwnership",
      "outputs": [],
      "stateMutability": "nonpayable",
      "type": "function"
    },
    {
      "inputs": [
        {
          "internalType": "string",
          "name": "_name",
          "type": "string"
        }
      ],
      "name": "setCommunityName",
      "outputs": [],
      "stateMutability": "nonpayable",
      "type": "function"
    },
    {
      "inputs": [],
      "name": "symbol",
      "outputs": [
        {
          "internalType": "string",
          "name": "",
          "type": "string"
        }
      ],
      "stateMutability": "view",
      "type": "function"
    },
    {
      "inputs": [],
      "name": "totalSupply",
      "outputs": [
        {
          "internalType": "uint256",
          "name": "",
          "type": "uint256"
        }
      ],
      "stateMutability": "view",
      "type": "function"
    },
    {
      "inputs": [
        {
          "internalType": "address",
          "name": "to",
          "type": "address"
        },
        {
          "internalType": "uint256",
          "name": "amount",
          "type": "uint256"
        }
      ],
      "name": "transfer",
      "outputs": [
        {
          "internalType": "bool",
          "name": "",
          "type": "bool"
        }
      ],
      "stateMutability": "nonpayable",
      "type": "function"
    },
    {
      "inputs": [
        {
          "internalType": "address",
          "name": "from",
          "type": "address"
        },
        {
          "internalType": "address",
          "name": "to",
          "type": "address"
        },
        {
          "internalType": "uint256",
          "name": "amount",
          "type": "uint256"
        }
      ],
      "name": "transferFrom",
      "outputs": [
        {
          "internalType": "bool",
          "name": "",
          "type": "bool"
        }
      ],
      "stateMutability": "nonpayable",
      "type": "function"
    },
    {
      "inputs": [
        {
          "internalType": "address",
          "name": "newOwner",
          "type": "address"
        }
      ],
      "name": "transferOwnership",
      "outputs": [],
      "stateMutability": "nonpayable",
      "type": "function"
    },
    {
      "inputs": [
        {
          "internalType": "address",
          "name": "",
          "type": "address"
        }
      ],
      "name": "userBalance",
      "outputs": [
        {
          "internalType": "uint256",
          "name": "",
          "type": "uint256"
        }
      ],
      "stateMutability": "view",
      "type": "function"
    },
    {
      "inputs": [
        {
          "internalType": "address payable",
          "name": "_to",
          "type": "address"
        },
        {
          "internalType": "uint256",
          "name": "_total",
          "type": "uint256"
        }
      ],
      "name": "withdrawMoney",
      "outputs": [],
      "stateMutability": "nonpayable",
      "type": "function"
    },
    {
      "stateMutability": "payable",
      "type": "receive"
    }
  ],
  "bytecode": "0x60806040523480156200001157600080fd5b506040518060400160405280600881526020017f4e657874436f696e0000000000000000000000000000000000000000000000008152506040518060400160405280600381526020017f4e584300000000000000000000000000000000000000000000000000000000008152508160039080519060200190620000969291906200042d565b508060049080519060200190620000af9291906200042d565b505050620000d2620000c6620001d360201b60201c565b620001db60201b60201c565b33600660006101000a81548173ffffffffffffffffffffffffffffffffffffffff021916908373ffffffffffffffffffffffffffffffffffffffff160217905550620001513362000128620002a160201b60201c565b600a62000136919062000677565b6103e8620001459190620006c8565b620002aa60201b60201c565b3373ffffffffffffffffffffffffffffffffffffffff167f8d54cf4376f9d10619fbb6aded215dcdffc1b80415e0750f5064018278632d0762000199620002a160201b60201c565b600a620001a7919062000677565b6103e8620001b69190620006c8565b604051620001c591906200079b565b60405180910390a26200091e565b600033905090565b6000600560009054906101000a900473ffffffffffffffffffffffffffffffffffffffff16905081600560006101000a81548173ffffffffffffffffffffffffffffffffffffffff021916908373ffffffffffffffffffffffffffffffffffffffff1602179055508173ffffffffffffffffffffffffffffffffffffffff168173ffffffffffffffffffffffffffffffffffffffff167f8be0079c531659141344cd1fd0a4f28419497f9722a3daafe3b4186f6b6457e060405160405180910390a35050565b60006012905090565b600073ffffffffffffffffffffffffffffffffffffffff168273ffffffffffffffffffffffffffffffffffffffff1614156200031d576040517f08c379a000000000000000000000000000000000000000000000000000000000815260040162000314906200081d565b60405180910390fd5b62000331600083836200042360201b60201c565b80600260008282546200034591906200083f565b92505081905550806000808473ffffffffffffffffffffffffffffffffffffffff1673ffffffffffffffffffffffffffffffffffffffff16815260200190815260200160002060008282546200039c91906200083f565b925050819055508173ffffffffffffffffffffffffffffffffffffffff16600073ffffffffffffffffffffffffffffffffffffffff167fddf252ad1be2c89b69c2b068fc378daa952ba7f163c4a11628f55a4df523b3ef836040516200040391906200089c565b60405180910390a36200041f600083836200042860201b60201c565b5050565b505050565b505050565b8280546200043b90620008e8565b90600052602060002090601f0160209004810192826200045f5760008555620004ab565b82601f106200047a57805160ff1916838001178555620004ab565b82800160010185558215620004ab579182015b82811115620004aa5782518255916020019190600101906200048d565b5b509050620004ba9190620004be565b5090565b5b80821115620004d9576000816000905550600101620004bf565b5090565b7f4e487b7100000000000000000000000000000000000000000000000000000000600052601160045260246000fd5b60008160011c9050919050565b6000808291508390505b60018511156200056b57808604811115620005435762000542620004dd565b5b6001851615620005535780820291505b808102905062000563856200050c565b945062000523565b94509492505050565b60008262000586576001905062000659565b8162000596576000905062000659565b8160018114620005af5760028114620005ba57620005f0565b600191505062000659565b60ff841115620005cf57620005ce620004dd565b5b8360020a915084821115620005e957620005e8620004dd565b5b5062000659565b5060208310610133831016604e8410600b84101617156200062a5782820a905083811115620006245762000623620004dd565b5b62000659565b62000639848484600162000519565b92509050818404811115620006535762000652620004dd565b5b81810290505b9392505050565b6000819050919050565b600060ff82169050919050565b6000620006848262000660565b915062000691836200066a565b9250620006c07fffffffffffffffffffffffffffffffffffffffffffffffffffffffffffffffff848462000574565b905092915050565b6000620006d58262000660565b9150620006e28362000660565b9250817fffffffffffffffffffffffffffffffffffffffffffffffffffffffffffffffff04831182151516156200071e576200071d620004dd565b5b828202905092915050565b620007348162000660565b82525050565b600082825260208201905092915050565b7f496e697469616c20737570706c79206f6620746f6b656e73206d696e7465642e600082015250565b6000620007836020836200073a565b915062000790826200074b565b602082019050919050565b6000604082019050620007b2600083018462000729565b8181036020830152620007c58162000774565b905092915050565b7f45524332303a206d696e7420746f20746865207a65726f206164647265737300600082015250565b600062000805601f836200073a565b91506200081282620007cd565b602082019050919050565b600060208201905081810360008301526200083881620007f6565b9050919050565b60006200084c8262000660565b9150620008598362000660565b9250827fffffffffffffffffffffffffffffffffffffffffffffffffffffffffffffffff03821115620008915762000890620004dd565b5b828201905092915050565b6000602082019050620008b3600083018462000729565b92915050565b7f4e487b7100000000000000000000000000000000000000000000000000000000600052602260045260246000fd5b600060028204905060018216806200090157607f821691505b60208210811415620009185762000917620008b9565b5b50919050565b612ea7806200092e6000396000f3fe6080604052600436106101855760003560e01c8063715018a6116100d1578063a9059cbb1161008a578063c6d572ae11610064578063c6d572ae14610572578063dd62ed3e1461059d578063f274c897146105da578063f2fde38b146106035761018c565b8063a9059cbb146104e1578063b7013dc11461051e578063b9bfdf69146105495761018c565b8063715018a6146103f2578063743295ea1461040957806379cc6790146104255780638da5cb5b1461044e57806395d89b4114610479578063a457c2d7146104a45761018c565b806323b872dd1161013e57806340c10f191161011857806340c10f191461033857806342966c68146103615780635fac917a1461038a57806370a08231146103b55761018c565b806323b872dd14610293578063313ce567146102d057806339509351146102fb5761018c565b80630103c92b1461018e57806306fdde03146101cb578063095ea7b3146101f657806316c05aa21461023357806318160ddd1461023d5780632083ec64146102685761018c565b3661018c57005b005b34801561019a57600080fd5b506101b560048036038101906101b09190611cde565b61062c565b6040516101c29190611d24565b60405180910390f35b3480156101d757600080fd5b506101e0610644565b6040516101ed9190611dd8565b60405180910390f35b34801561020257600080fd5b5061021d60048036038101906102189190611e26565b6106d6565b60405161022a9190611e81565b60405180910390f35b61023b6106f9565b005b34801561024957600080fd5b506102526107d5565b60405161025f9190611d24565b60405180910390f35b34801561027457600080fd5b5061027d6107df565b60405161028a9190611d24565b60405180910390f35b34801561029f57600080fd5b506102ba60048036038101906102b59190611e9c565b610877565b6040516102c79190611e81565b60405180910390f35b3480156102dc57600080fd5b506102e56108a6565b6040516102f29190611f0b565b60405180910390f35b34801561030757600080fd5b50610322600480360381019061031d9190611e26565b6108af565b60405161032f9190611e81565b60405180910390f35b34801561034457600080fd5b5061035f600480360381019061035a9190611e26565b6108e6565b005b34801561036d57600080fd5b5061038860048036038101906103839190611f26565b61094a565b005b34801561039657600080fd5b5061039f6109ad565b6040516103ac9190611f62565b60405180910390f35b3480156103c157600080fd5b506103dc60048036038101906103d79190611cde565b6109d3565b6040516103e99190611d24565b60405180910390f35b3480156103fe57600080fd5b50610407610a1b565b005b610423600480360381019061041e9190611fbb565b610a2f565b005b34801561043157600080fd5b5061044c60048036038101906104479190611e26565b610c36565b005b34801561045a57600080fd5b50610463610c56565b6040516104709190611f62565b60405180910390f35b34801561048557600080fd5b5061048e610c80565b60405161049b9190611dd8565b60405180910390f35b3480156104b057600080fd5b506104cb60048036038101906104c69190611e26565b610d12565b6040516104d89190611e81565b60405180910390f35b3480156104ed57600080fd5b5061050860048036038101906105039190611e26565b610d89565b6040516105159190611e81565b60405180910390f35b34801561052a57600080fd5b50610533610dac565b6040516105409190611d24565b60405180910390f35b34801561055557600080fd5b50610570600480360381019061056b9190612130565b610df3565b005b34801561057e57600080fd5b50610587610f2a565b6040516105949190611dd8565b60405180910390f35b3480156105a957600080fd5b506105c460048036038101906105bf9190612179565b610fb8565b6040516105d19190611d24565b60405180910390f35b3480156105e657600080fd5b5061060160048036038101906105fc9190611fbb565b61103f565b005b34801561060f57600080fd5b5061062a60048036038101906106259190611cde565b6111e0565b005b60086020528060005260406000206000915090505481565b606060038054610653906121e8565b80601f016020809104026020016040519081016040528092919081815260200182805461067f906121e8565b80156106cc5780601f106106a1576101008083540402835291602001916106cc565b820191906000526020600020905b8154815290600101906020018083116106af57829003601f168201915b5050505050905090565b6000806106e1611264565b90506106ee81858561126c565b600191505092915050565b60003411610739577ff9ded7f9b97520445af4789ea8b2ee50ad5460075e4283c17964050c559e440933604051610730919061228c565b60405180910390a15b600034141561077d576040517f08c379a0000000000000000000000000000000000000000000000000000000008152600401610774906122ba565b60405180910390fd5b34600860003373ffffffffffffffffffffffffffffffffffffffff1673ffffffffffffffffffffffffffffffffffffffff16815260200190815260200160002060008282546107cc9190612309565b92505081905550565b6000600254905090565b6000600660009054906101000a900473ffffffffffffffffffffffffffffffffffffffff1673ffffffffffffffffffffffffffffffffffffffff163373ffffffffffffffffffffffffffffffffffffffff1614610871576040517f08c379a0000000000000000000000000000000000000000000000000000000008152600401610868906123d1565b60405180910390fd5b47905090565b600080610882611264565b905061088f858285611437565b61089a8585856114c3565b60019150509392505050565b60006012905090565b6000806108ba611264565b90506108db8185856108cc8589610fb8565b6108d69190612309565b61126c565b600191505092915050565b6108ee611744565b6108f882826117c2565b3373ffffffffffffffffffffffffffffffffffffffff167fc31b604bce0888a4f5e36e76eee33516a5fff7a5d58ac7dcead8174c323eebf28260405161093e919061243d565b60405180910390a25050565b610952611744565b61095c3382611922565b3373ffffffffffffffffffffffffffffffffffffffff167fcde716650b13ae41f235d679e62500d67355bc41802e6cfc087b67a7850d975f826040516109a291906124b7565b60405180910390a250565b600660009054906101000a900473ffffffffffffffffffffffffffffffffffffffff1681565b60008060008373ffffffffffffffffffffffffffffffffffffffff1673ffffffffffffffffffffffffffffffffffffffff168152602001908152602001600020549050919050565b610a23611744565b610a2d6000611af9565b565b600860003373ffffffffffffffffffffffffffffffffffffffff1673ffffffffffffffffffffffffffffffffffffffff168152602001908152602001600020548110610aad577ff9ded7f9b97520445af4789ea8b2ee50ad5460075e4283c17964050c559e440933604051610aa49190612557565b60405180910390a15b600860003373ffffffffffffffffffffffffffffffffffffffff1673ffffffffffffffffffffffffffffffffffffffff16815260200190815260200160002054811115610b2f576040517f08c379a0000000000000000000000000000000000000000000000000000000008152600401610b2690612585565b60405180910390fd5b80600860003373ffffffffffffffffffffffffffffffffffffffff1673ffffffffffffffffffffffffffffffffffffffff1681526020019081526020016000206000828254610b7e91906125a5565b9250508190555060008273ffffffffffffffffffffffffffffffffffffffff1682604051610bab9061260a565b60006040518083038185875af1925050503d8060008114610be8576040519150601f19603f3d011682016040523d82523d6000602084013e610bed565b606091505b5050905080610c31576040517f08c379a0000000000000000000000000000000000000000000000000000000008152600401610c289061266b565b60405180910390fd5b505050565b610c4882610c42611264565b83611437565b610c528282611922565b5050565b6000600560009054906101000a900473ffffffffffffffffffffffffffffffffffffffff16905090565b606060048054610c8f906121e8565b80601f0160208091040260200160405190810160405280929190818152602001828054610cbb906121e8565b8015610d085780601f10610cdd57610100808354040283529160200191610d08565b820191906000526020600020905b815481529060010190602001808311610ceb57829003601f168201915b5050505050905090565b600080610d1d611264565b90506000610d2b8286610fb8565b905083811015610d70576040517f08c379a0000000000000000000000000000000000000000000000000000000008152600401610d67906126fd565b60405180910390fd5b610d7d828686840361126c565b60019250505092915050565b600080610d94611264565b9050610da18185856114c3565b600191505092915050565b6000600860003373ffffffffffffffffffffffffffffffffffffffff1673ffffffffffffffffffffffffffffffffffffffff16815260200190815260200160002054905090565b600660009054906101000a900473ffffffffffffffffffffffffffffffffffffffff1673ffffffffffffffffffffffffffffffffffffffff163373ffffffffffffffffffffffffffffffffffffffff1614610e80577ff9ded7f9b97520445af4789ea8b2ee50ad5460075e4283c17964050c559e440933604051610e77919061278f565b60405180910390a15b600660009054906101000a900473ffffffffffffffffffffffffffffffffffffffff1673ffffffffffffffffffffffffffffffffffffffff163373ffffffffffffffffffffffffffffffffffffffff1614610f10576040517f08c379a0000000000000000000000000000000000000000000000000000000008152600401610f07906127bd565b60405180910390fd5b8060079080519060200190610f26929190611bc9565b5050565b60078054610f37906121e8565b80601f0160208091040260200160405190810160405280929190818152602001828054610f63906121e8565b8015610fb05780601f10610f8557610100808354040283529160200191610fb0565b820191906000526020600020905b815481529060010190602001808311610f9357829003601f168201915b505050505081565b6000600160008473ffffffffffffffffffffffffffffffffffffffff1673ffffffffffffffffffffffffffffffffffffffff16815260200190815260200160002060008373ffffffffffffffffffffffffffffffffffffffff1673ffffffffffffffffffffffffffffffffffffffff16815260200190815260200160002054905092915050565b600860003373ffffffffffffffffffffffffffffffffffffffff1673ffffffffffffffffffffffffffffffffffffffff1681526020019081526020016000205481106110bd577ff9ded7f9b97520445af4789ea8b2ee50ad5460075e4283c17964050c559e4409336040516110b4919061284f565b60405180910390a15b600860003373ffffffffffffffffffffffffffffffffffffffff1673ffffffffffffffffffffffffffffffffffffffff1681526020019081526020016000205481111561113f576040517f08c379a00000000000000000000000000000000000000000000000000000000081526004016111369061287d565b60405180910390fd5b80600860003373ffffffffffffffffffffffffffffffffffffffff1673ffffffffffffffffffffffffffffffffffffffff168152602001908152602001600020600082825461118e91906125a5565b925050819055508173ffffffffffffffffffffffffffffffffffffffff166108fc829081150290604051600060405180830381858888f193505050501580156111db573d6000803e3d6000fd5b505050565b6111e8611744565b600073ffffffffffffffffffffffffffffffffffffffff168173ffffffffffffffffffffffffffffffffffffffff161415611258576040517f08c379a000000000000000000000000000000000000000000000000000000000815260040161124f9061290f565b60405180910390fd5b61126181611af9565b50565b600033905090565b600073ffffffffffffffffffffffffffffffffffffffff168373ffffffffffffffffffffffffffffffffffffffff1614156112dc576040517f08c379a00000000000000000000000000000000000000000000000000000000081526004016112d3906129a1565b60405180910390fd5b600073ffffffffffffffffffffffffffffffffffffffff168273ffffffffffffffffffffffffffffffffffffffff16141561134c576040517f08c379a000000000000000000000000000000000000000000000000000000000815260040161134390612a33565b60405180910390fd5b80600160008573ffffffffffffffffffffffffffffffffffffffff1673ffffffffffffffffffffffffffffffffffffffff16815260200190815260200160002060008473ffffffffffffffffffffffffffffffffffffffff1673ffffffffffffffffffffffffffffffffffffffff168152602001908152602001600020819055508173ffffffffffffffffffffffffffffffffffffffff168373ffffffffffffffffffffffffffffffffffffffff167f8c5be1e5ebec7d5bd14f71427d1e84f3dd0314c0f7b2291e5b200ac8c7c3b9258360405161142a9190611d24565b60405180910390a3505050565b60006114438484610fb8565b90507fffffffffffffffffffffffffffffffffffffffffffffffffffffffffffffffff81146114bd57818110156114af576040517f08c379a00000000000000000000000000000000000000000000000000000000081526004016114a690612a9f565b60405180910390fd5b6114bc848484840361126c565b5b50505050565b600073ffffffffffffffffffffffffffffffffffffffff168373ffffffffffffffffffffffffffffffffffffffff161415611533576040517f08c379a000000000000000000000000000000000000000000000000000000000815260040161152a90612b31565b60405180910390fd5b600073ffffffffffffffffffffffffffffffffffffffff168273ffffffffffffffffffffffffffffffffffffffff1614156115a3576040517f08c379a000000000000000000000000000000000000000000000000000000000815260040161159a90612bc3565b60405180910390fd5b6115ae838383611bbf565b60008060008573ffffffffffffffffffffffffffffffffffffffff1673ffffffffffffffffffffffffffffffffffffffff16815260200190815260200160002054905081811015611634576040517f08c379a000000000000000000000000000000000000000000000000000000000815260040161162b90612c55565b60405180910390fd5b8181036000808673ffffffffffffffffffffffffffffffffffffffff1673ffffffffffffffffffffffffffffffffffffffff16815260200190815260200160002081905550816000808573ffffffffffffffffffffffffffffffffffffffff1673ffffffffffffffffffffffffffffffffffffffff16815260200190815260200160002060008282546116c79190612309565b925050819055508273ffffffffffffffffffffffffffffffffffffffff168473ffffffffffffffffffffffffffffffffffffffff167fddf252ad1be2c89b69c2b068fc378daa952ba7f163c4a11628f55a4df523b3ef8460405161172b9190611d24565b60405180910390a361173e848484611bc4565b50505050565b61174c611264565b73ffffffffffffffffffffffffffffffffffffffff1661176a610c56565b73ffffffffffffffffffffffffffffffffffffffff16146117c0576040517f08c379a00000000000000000000000000000000000000000000000000000000081526004016117b790612cc1565b60405180910390fd5b565b600073ffffffffffffffffffffffffffffffffffffffff168273ffffffffffffffffffffffffffffffffffffffff161415611832576040517f08c379a000000000000000000000000000000000000000000000000000000000815260040161182990612d2d565b60405180910390fd5b61183e60008383611bbf565b80600260008282546118509190612309565b92505081905550806000808473ffffffffffffffffffffffffffffffffffffffff1673ffffffffffffffffffffffffffffffffffffffff16815260200190815260200160002060008282546118a59190612309565b925050819055508173ffffffffffffffffffffffffffffffffffffffff16600073ffffffffffffffffffffffffffffffffffffffff167fddf252ad1be2c89b69c2b068fc378daa952ba7f163c4a11628f55a4df523b3ef8360405161190a9190611d24565b60405180910390a361191e60008383611bc4565b5050565b600073ffffffffffffffffffffffffffffffffffffffff168273ffffffffffffffffffffffffffffffffffffffff161415611992576040517f08c379a000000000000000000000000000000000000000000000000000000000815260040161198990612dbf565b60405180910390fd5b61199e82600083611bbf565b60008060008473ffffffffffffffffffffffffffffffffffffffff1673ffffffffffffffffffffffffffffffffffffffff16815260200190815260200160002054905081811015611a24576040517f08c379a0000000000000000000000000000000000000000000000000000000008152600401611a1b90612e51565b60405180910390fd5b8181036000808573ffffffffffffffffffffffffffffffffffffffff1673ffffffffffffffffffffffffffffffffffffffff168152602001908152602001600020819055508160026000828254611a7b91906125a5565b92505081905550600073ffffffffffffffffffffffffffffffffffffffff168373ffffffffffffffffffffffffffffffffffffffff167fddf252ad1be2c89b69c2b068fc378daa952ba7f163c4a11628f55a4df523b3ef84604051611ae09190611d24565b60405180910390a3611af483600084611bc4565b505050565b6000600560009054906101000a900473ffffffffffffffffffffffffffffffffffffffff16905081600560006101000a81548173ffffffffffffffffffffffffffffffffffffffff021916908373ffffffffffffffffffffffffffffffffffffffff1602179055508173ffffffffffffffffffffffffffffffffffffffff168173ffffffffffffffffffffffffffffffffffffffff167f8be0079c531659141344cd1fd0a4f28419497f9722a3daafe3b4186f6b6457e060405160405180910390a35050565b505050565b505050565b828054611bd5906121e8565b90600052602060002090601f016020900481019282611bf75760008555611c3e565b82601f10611c1057805160ff1916838001178555611c3e565b82800160010185558215611c3e579182015b82811115611c3d578251825591602001919060010190611c22565b5b509050611c4b9190611c4f565b5090565b5b80821115611c68576000816000905550600101611c50565b5090565b6000604051905090565b600080fd5b600080fd5b600073ffffffffffffffffffffffffffffffffffffffff82169050919050565b6000611cab82611c80565b9050919050565b611cbb81611ca0565b8114611cc657600080fd5b50565b600081359050611cd881611cb2565b92915050565b600060208284031215611cf457611cf3611c76565b5b6000611d0284828501611cc9565b91505092915050565b6000819050919050565b611d1e81611d0b565b82525050565b6000602082019050611d396000830184611d15565b92915050565b600081519050919050565b600082825260208201905092915050565b60005b83811015611d79578082015181840152602081019050611d5e565b83811115611d88576000848401525b50505050565b6000601f19601f8301169050919050565b6000611daa82611d3f565b611db48185611d4a565b9350611dc4818560208601611d5b565b611dcd81611d8e565b840191505092915050565b60006020820190508181036000830152611df28184611d9f565b905092915050565b611e0381611d0b565b8114611e0e57600080fd5b50565b600081359050611e2081611dfa565b92915050565b60008060408385031215611e3d57611e3c611c76565b5b6000611e4b85828601611cc9565b9250506020611e5c85828601611e11565b9150509250929050565b60008115159050919050565b611e7b81611e66565b82525050565b6000602082019050611e966000830184611e72565b92915050565b600080600060608486031215611eb557611eb4611c76565b5b6000611ec386828701611cc9565b9350506020611ed486828701611cc9565b9250506040611ee586828701611e11565b9150509250925092565b600060ff82169050919050565b611f0581611eef565b82525050565b6000602082019050611f206000830184611efc565b92915050565b600060208284031215611f3c57611f3b611c76565b5b6000611f4a84828501611e11565b91505092915050565b611f5c81611ca0565b82525050565b6000602082019050611f776000830184611f53565b92915050565b6000611f8882611c80565b9050919050565b611f9881611f7d565b8114611fa357600080fd5b50565b600081359050611fb581611f8f565b92915050565b60008060408385031215611fd257611fd1611c76565b5b6000611fe085828601611fa6565b9250506020611ff185828601611e11565b9150509250929050565b600080fd5b600080fd5b7f4e487b7100000000000000000000000000000000000000000000000000000000600052604160045260246000fd5b61203d82611d8e565b810181811067ffffffffffffffff8211171561205c5761205b612005565b5b80604052505050565b600061206f611c6c565b905061207b8282612034565b919050565b600067ffffffffffffffff82111561209b5761209a612005565b5b6120a482611d8e565b9050602081019050919050565b82818337600083830152505050565b60006120d36120ce84612080565b612065565b9050828152602081018484840111156120ef576120ee612000565b5b6120fa8482856120b1565b509392505050565b600082601f83011261211757612116611ffb565b5b81356121278482602086016120c0565b91505092915050565b60006020828403121561214657612145611c76565b5b600082013567ffffffffffffffff81111561216457612163611c7b565b5b61217084828501612102565b91505092915050565b600080604083850312156121905761218f611c76565b5b600061219e85828601611cc9565b92505060206121af85828601611cc9565b9150509250929050565b7f4e487b7100000000000000000000000000000000000000000000000000000000600052602260045260246000fd5b6000600282049050600182168061220057607f821691505b60208210811415612214576122136121b9565b5b50919050565b7f596f75206e65656420746f206465706f73697420736f6d6520616d6f756e742060008201527f6f66206d6f6e6579210000000000000000000000000000000000000000000000602082015250565b6000612276602983611d4a565b91506122818261221a565b604082019050919050565b60006040820190506122a16000830184611f53565b81810360208301526122b281612269565b905092915050565b600060208201905081810360008301526122d381612269565b9050919050565b7f4e487b7100000000000000000000000000000000000000000000000000000000600052601160045260246000fd5b600061231482611d0b565b915061231f83611d0b565b9250827fffffffffffffffffffffffffffffffffffffffffffffffffffffffffffffffff03821115612354576123536122da565b5b828201905092915050565b7f596f75206d7573742062652074686520636f6d6d756e6974792041646d696e2060008201527f746f2073656520616c6c2062616c616e6365732e000000000000000000000000602082015250565b60006123bb603483611d4a565b91506123c68261235f565b604082019050919050565b600060208201905081810360008301526123ea816123ae565b9050919050565b7f4164646974696f6e616c20746f6b656e73206d696e7465642e00000000000000600082015250565b6000612427601983611d4a565b9150612432826123f1565b602082019050919050565b60006040820190506124526000830184611d15565b81810360208301526124638161241a565b905092915050565b7f546f6b656e73206275726e65642e000000000000000000000000000000000000600082015250565b60006124a1600e83611d4a565b91506124ac8261246b565b602082019050919050565b60006040820190506124cc6000830184611d15565b81810360208301526124dd81612494565b905092915050565b7f596f75206861766520696e7375666669656e742066756e647320746f20646f6e60008201527f6174650000000000000000000000000000000000000000000000000000000000602082015250565b6000612541602383611d4a565b915061254c826124e5565b604082019050919050565b600060408201905061256c6000830184611f53565b818103602083015261257d81612534565b905092915050565b6000602082019050818103600083015261259e81612534565b9050919050565b60006125b082611d0b565b91506125bb83611d0b565b9250828210156125ce576125cd6122da565b5b828203905092915050565b600081905092915050565b50565b60006125f46000836125d9565b91506125ff826125e4565b600082019050919050565b6000612615826125e7565b9150819050919050565b7f4661696c656420746f2073656e64204574686572000000000000000000000000600082015250565b6000612655601483611d4a565b91506126608261261f565b602082019050919050565b6000602082019050818103600083015261268481612648565b9050919050565b7f45524332303a2064656372656173656420616c6c6f77616e63652062656c6f7760008201527f207a65726f000000000000000000000000000000000000000000000000000000602082015250565b60006126e7602583611d4a565b91506126f28261268b565b604082019050919050565b60006020820190508181036000830152612716816126da565b9050919050565b7f596f75206d7573742062652074686520636f6d6d756e6974792041646d696e2060008201527f746f2073657420746865206e616d65206f662074686520636f6d6d756e697479602082015250565b6000612779604083611d4a565b91506127848261271d565b604082019050919050565b60006040820190506127a46000830184611f53565b81810360208301526127b58161276c565b905092915050565b600060208201905081810360008301526127d68161276c565b9050919050565b7f596f75206861766520696e7375666669656e742066756e647320746f2077697460008201527f6864726177000000000000000000000000000000000000000000000000000000602082015250565b6000612839602583611d4a565b9150612844826127dd565b604082019050919050565b60006040820190506128646000830184611f53565b81810360208301526128758161282c565b905092915050565b600060208201905081810360008301526128968161282c565b9050919050565b7f4f776e61626c653a206e6577206f776e657220697320746865207a65726f206160008201527f6464726573730000000000000000000000000000000000000000000000000000602082015250565b60006128f9602683611d4a565b91506129048261289d565b604082019050919050565b60006020820190508181036000830152612928816128ec565b9050919050565b7f45524332303a20617070726f76652066726f6d20746865207a65726f2061646460008201527f7265737300000000000000000000000000000000000000000000000000000000602082015250565b600061298b602483611d4a565b91506129968261292f565b604082019050919050565b600060208201905081810360008301526129ba8161297e565b9050919050565b7f45524332303a20617070726f766520746f20746865207a65726f20616464726560008201527f7373000000000000000000000000000000000000000000000000000000000000602082015250565b6000612a1d602283611d4a565b9150612a28826129c1565b604082019050919050565b60006020820190508181036000830152612a4c81612a10565b9050919050565b7f45524332303a20696e73756666696369656e7420616c6c6f77616e6365000000600082015250565b6000612a89601d83611d4a565b9150612a9482612a53565b602082019050919050565b60006020820190508181036000830152612ab881612a7c565b9050919050565b7f45524332303a207472616e736665722066726f6d20746865207a65726f20616460008201527f6472657373000000000000000000000000000000000000000000000000000000602082015250565b6000612b1b602583611d4a565b9150612b2682612abf565b604082019050919050565b60006020820190508181036000830152612b4a81612b0e565b9050919050565b7f45524332303a207472616e7366657220746f20746865207a65726f206164647260008201527f6573730000000000000000000000000000000000000000000000000000000000602082015250565b6000612bad602383611d4a565b9150612bb882612b51565b604082019050919050565b60006020820190508181036000830152612bdc81612ba0565b9050919050565b7f45524332303a207472616e7366657220616d6f756e742065786365656473206260008201527f616c616e63650000000000000000000000000000000000000000000000000000602082015250565b6000612c3f602683611d4a565b9150612c4a82612be3565b604082019050919050565b60006020820190508181036000830152612c6e81612c32565b9050919050565b7f4f776e61626c653a2063616c6c6572206973206e6f7420746865206f776e6572600082015250565b6000612cab602083611d4a565b9150612cb682612c75565b602082019050919050565b60006020820190508181036000830152612cda81612c9e565b9050919050565b7f45524332303a206d696e7420746f20746865207a65726f206164647265737300600082015250565b6000612d17601f83611d4a565b9150612d2282612ce1565b602082019050919050565b60006020820190508181036000830152612d4681612d0a565b9050919050565b7f45524332303a206275726e2066726f6d20746865207a65726f2061646472657360008201527f7300000000000000000000000000000000000000000000000000000000000000602082015250565b6000612da9602183611d4a565b9150612db482612d4d565b604082019050919050565b60006020820190508181036000830152612dd881612d9c565b9050919050565b7f45524332303a206275726e20616d6f756e7420657863656564732062616c616e60008201527f6365000000000000000000000000000000000000000000000000000000000000602082015250565b6000612e3b602283611d4a565b9150612e4682612ddf565b604082019050919050565b60006020820190508181036000830152612e6a81612e2e565b905091905056fea264697066735822122060f23c884d6e13f9310a0504c97a5c4d9048fa553c6a13bc9a1a9f8df85c4b6e64736f6c63430008090033",
  "linkReferences": {},
  "deployedLinkReferences": {}
}