{
  "_format": "hh-sol-artifact-1",
  "contractName": "Bank",
  "sourceName": "contracts/BankContract.sol",
  "abi": [
    {
      "inputs": [],
      "stateMutability": "nonpayable",
      "type": "constructor"
    },
    {
      "stateMutability": "payable",
      "type": "fallback"
    },
    {
      "inputs": [
        {
          "internalType": "address payable",
          "name": "_to",
          "type": "address"
        },
        {
          "internalType": "uint256",
          "name": "_fund",
          "type": "uint256"
        }
      ],
      "name": "DonateFunds",
      "outputs": [],
      "stateMutability": "payable",
      "type": "function"
    },
    {
      "inputs": [],
      "name": "communityAdmin",
      "outputs": [
        {
          "internalType": "address",
          "name": "",
          "type": "address"
        }
      ],
      "stateMutability": "view",
      "type": "function"
    },
    {
      "inputs": [],
      "name": "communityName",
      "outputs": [
        {
          "internalType": "string",
          "name": "",
          "type": "string"
        }
      ],
      "stateMutability": "view",
      "type": "function"
    },
    {
      "inputs": [],
      "name": "depositMoney",
      "outputs": [],
      "stateMutability": "payable",
      "type": "function"
    },
    {
      "inputs": [],
      "name": "getCommunityBalance",
      "outputs": [
        {
          "internalType": "uint256",
          "name": "",
          "type": "uint256"
        }
      ],
      "stateMutability": "view",
      "type": "function"
    },
    {
      "inputs": [],
      "name": "getUserBalance",
      "outputs": [
        {
          "internalType": "uint256",
          "name": "",
          "type": "uint256"
        }
      ],
      "stateMutability": "view",
      "type": "function"
    },
    {
      "inputs": [
        {
          "internalType": "string",
          "name": "_name",
          "type": "string"
        }
      ],
      "name": "setCommunityName",
      "outputs": [],
      "stateMutability": "nonpayable",
      "type": "function"
    },
    {
      "inputs": [
        {
          "internalType": "address",
          "name": "",
          "type": "address"
        }
      ],
      "name": "userBalance",
      "outputs": [
        {
          "internalType": "uint256",
          "name": "",
          "type": "uint256"
        }
      ],
      "stateMutability": "view",
      "type": "function"
    },
    {
      "inputs": [
        {
          "internalType": "address payable",
          "name": "_to",
          "type": "address"
        },
        {
          "internalType": "uint256",
          "name": "_total",
          "type": "uint256"
        }
      ],
      "name": "withdrawMoney",
      "outputs": [],
      "stateMutability": "nonpayable",
      "type": "function"
    },
    {
      "stateMutability": "payable",
      "type": "receive"
    }
  ],
  "bytecode": "0x608060405234801561001057600080fd5b50336000806101000a81548173ffffffffffffffffffffffffffffffffffffffff021916908373ffffffffffffffffffffffffffffffffffffffff160217905550611003806100606000396000f3fe60806040526004361061008a5760003560e01c8063743295ea11610059578063743295ea14610130578063b7013dc11461014c578063b9bfdf6914610177578063c6d572ae146101a0578063f274c897146101cb57610091565b80630103c92b1461009357806316c05aa2146100d05780632083ec64146100da5780635fac917a1461010557610091565b3661009157005b005b34801561009f57600080fd5b506100ba60048036038101906100b5919061084b565b6101f4565b6040516100c79190610891565b60405180910390f35b6100d861020c565b005b3480156100e657600080fd5b506100ef6102a8565b6040516100fc9190610891565b60405180910390f35b34801561011157600080fd5b5061011a61033f565b60405161012791906108bb565b60405180910390f35b61014a60048036038101906101459190610940565b610363565b005b34801561015857600080fd5b50610161610496565b60405161016e9190610891565b60405180910390f35b34801561018357600080fd5b5061019e60048036038101906101999190610ac6565b6104dd565b005b3480156101ac57600080fd5b506101b5610585565b6040516101c29190610b97565b60405180910390f35b3480156101d757600080fd5b506101f260048036038101906101ed9190610940565b610613565b005b60026020528060005260406000206000915090505481565b6000341415610250576040517f08c379a000000000000000000000000000000000000000000000000000000000815260040161024790610c2b565b60405180910390fd5b34600260003373ffffffffffffffffffffffffffffffffffffffff1673ffffffffffffffffffffffffffffffffffffffff168152602001908152602001600020600082825461029f9190610c7a565b92505081905550565b60008060009054906101000a900473ffffffffffffffffffffffffffffffffffffffff1673ffffffffffffffffffffffffffffffffffffffff163373ffffffffffffffffffffffffffffffffffffffff1614610339576040517f08c379a000000000000000000000000000000000000000000000000000000000815260040161033090610d42565b60405180910390fd5b47905090565b60008054906101000a900473ffffffffffffffffffffffffffffffffffffffff1681565b600260003373ffffffffffffffffffffffffffffffffffffffff1673ffffffffffffffffffffffffffffffffffffffff168152602001908152602001600020548111156103e5576040517f08c379a00000000000000000000000000000000000000000000000000000000081526004016103dc90610dd4565b60405180910390fd5b60008273ffffffffffffffffffffffffffffffffffffffff168260405161040b90610e25565b60006040518083038185875af1925050503d8060008114610448576040519150601f19603f3d011682016040523d82523d6000602084013e61044d565b606091505b5050905080610491576040517f08c379a000000000000000000000000000000000000000000000000000000000815260040161048890610e86565b60405180910390fd5b505050565b6000600260003373ffffffffffffffffffffffffffffffffffffffff1673ffffffffffffffffffffffffffffffffffffffff16815260200190815260200160002054905090565b60008054906101000a900473ffffffffffffffffffffffffffffffffffffffff1673ffffffffffffffffffffffffffffffffffffffff163373ffffffffffffffffffffffffffffffffffffffff161461056b576040517f08c379a000000000000000000000000000000000000000000000000000000000815260040161056290610f18565b60405180910390fd5b8060019080519060200190610581929190610736565b5050565b6001805461059290610f67565b80601f01602080910402602001604051908101604052809291908181526020018280546105be90610f67565b801561060b5780601f106105e05761010080835404028352916020019161060b565b820191906000526020600020905b8154815290600101906020018083116105ee57829003601f168201915b505050505081565b600260003373ffffffffffffffffffffffffffffffffffffffff1673ffffffffffffffffffffffffffffffffffffffff16815260200190815260200160002054811115610695576040517f08c379a000000000000000000000000000000000000000000000000000000000815260040161068c90610dd4565b60405180910390fd5b80600260003373ffffffffffffffffffffffffffffffffffffffff1673ffffffffffffffffffffffffffffffffffffffff16815260200190815260200160002060008282546106e49190610f99565b925050819055508173ffffffffffffffffffffffffffffffffffffffff166108fc829081150290604051600060405180830381858888f19350505050158015610731573d6000803e3d6000fd5b505050565b82805461074290610f67565b90600052602060002090601f01602090048101928261076457600085556107ab565b82601f1061077d57805160ff19168380011785556107ab565b828001600101855582156107ab579182015b828111156107aa57825182559160200191906001019061078f565b5b5090506107b891906107bc565b5090565b5b808211156107d55760008160009055506001016107bd565b5090565b6000604051905090565b600080fd5b600080fd5b600073ffffffffffffffffffffffffffffffffffffffff82169050919050565b6000610818826107ed565b9050919050565b6108288161080d565b811461083357600080fd5b50565b6000813590506108458161081f565b92915050565b600060208284031215610861576108606107e3565b5b600061086f84828501610836565b91505092915050565b6000819050919050565b61088b81610878565b82525050565b60006020820190506108a66000830184610882565b92915050565b6108b58161080d565b82525050565b60006020820190506108d060008301846108ac565b92915050565b60006108e1826107ed565b9050919050565b6108f1816108d6565b81146108fc57600080fd5b50565b60008135905061090e816108e8565b92915050565b61091d81610878565b811461092857600080fd5b50565b60008135905061093a81610914565b92915050565b60008060408385031215610957576109566107e3565b5b6000610965858286016108ff565b92505060206109768582860161092b565b9150509250929050565b600080fd5b600080fd5b6000601f19601f8301169050919050565b7f4e487b7100000000000000000000000000000000000000000000000000000000600052604160045260246000fd5b6109d38261098a565b810181811067ffffffffffffffff821117156109f2576109f161099b565b5b80604052505050565b6000610a056107d9565b9050610a1182826109ca565b919050565b600067ffffffffffffffff821115610a3157610a3061099b565b5b610a3a8261098a565b9050602081019050919050565b82818337600083830152505050565b6000610a69610a6484610a16565b6109fb565b905082815260208101848484011115610a8557610a84610985565b5b610a90848285610a47565b509392505050565b600082601f830112610aad57610aac610980565b5b8135610abd848260208601610a56565b91505092915050565b600060208284031215610adc57610adb6107e3565b5b600082013567ffffffffffffffff811115610afa57610af96107e8565b5b610b0684828501610a98565b91505092915050565b600081519050919050565b600082825260208201905092915050565b60005b83811015610b49578082015181840152602081019050610b2e565b83811115610b58576000848401525b50505050565b6000610b6982610b0f565b610b738185610b1a565b9350610b83818560208601610b2b565b610b8c8161098a565b840191505092915050565b60006020820190508181036000830152610bb18184610b5e565b905092915050565b7f596f75206e65656420746f206465706f73697420736f6d6520616d6f756e742060008201527f6f66206d6f6e6579210000000000000000000000000000000000000000000000602082015250565b6000610c15602983610b1a565b9150610c2082610bb9565b604082019050919050565b60006020820190508181036000830152610c4481610c08565b9050919050565b7f4e487b7100000000000000000000000000000000000000000000000000000000600052601160045260246000fd5b6000610c8582610878565b9150610c9083610878565b9250827fffffffffffffffffffffffffffffffffffffffffffffffffffffffffffffffff03821115610cc557610cc4610c4b565b5b828201905092915050565b7f596f75206d7573742062652074686520636f6d6d756e6974792041646d696e2060008201527f746f2073656520616c6c2062616c616e6365732e000000000000000000000000602082015250565b6000610d2c603483610b1a565b9150610d3782610cd0565b604082019050919050565b60006020820190508181036000830152610d5b81610d1f565b9050919050565b7f596f75206861766520696e7375666669656e742066756e647320746f2077697460008201527f6864726177000000000000000000000000000000000000000000000000000000602082015250565b6000610dbe602583610b1a565b9150610dc982610d62565b604082019050919050565b60006020820190508181036000830152610ded81610db1565b9050919050565b600081905092915050565b50565b6000610e0f600083610df4565b9150610e1a82610dff565b600082019050919050565b6000610e3082610e02565b9150819050919050565b7f4661696c656420746f2073656e64204574686572000000000000000000000000600082015250565b6000610e70601483610b1a565b9150610e7b82610e3a565b602082019050919050565b60006020820190508181036000830152610e9f81610e63565b9050919050565b7f596f75206d7573742062652074686520636f6d6d756e6974792041646d696e2060008201527f746f2073657420746865206e616d65206f662074686520636f6d6d756e697479602082015250565b6000610f02604083610b1a565b9150610f0d82610ea6565b604082019050919050565b60006020820190508181036000830152610f3181610ef5565b9050919050565b7f4e487b7100000000000000000000000000000000000000000000000000000000600052602260045260246000fd5b60006002820490506001821680610f7f57607f821691505b60208210811415610f9357610f92610f38565b5b50919050565b6000610fa482610878565b9150610faf83610878565b925082821015610fc257610fc1610c4b565b5b82820390509291505056fea26469706673582212206f5651ea8321189cf103d9de594bce0bda4a135a976171ee2ab6eb4b3c16520b64736f6c63430008090033",
  "linkReferences": {},
  "deployedLinkReferences": {}
}