{
  "_format": "hh-sol-artifact-1",
  "contractName": "Bank",
  "sourceName": "contracts/BankContract.sol",
  "abi": [
    {
      "inputs": [],
      "stateMutability": "nonpayable",
      "type": "constructor"
    },
    {
      "stateMutability": "payable",
      "type": "fallback"
    },
    {
      "inputs": [
        {
          "internalType": "address payable",
          "name": "_to",
          "type": "address"
        },
        {
          "internalType": "uint256",
          "name": "_fund",
          "type": "uint256"
        }
      ],
      "name": "DonateFunds",
      "outputs": [],
      "stateMutability": "payable",
      "type": "function"
    },
    {
      "inputs": [],
      "name": "bankName",
      "outputs": [
        {
          "internalType": "string",
          "name": "",
          "type": "string"
        }
      ],
      "stateMutability": "view",
      "type": "function"
    },
    {
      "inputs": [],
      "name": "bankOwner",
      "outputs": [
        {
          "internalType": "address",
          "name": "",
          "type": "address"
        }
      ],
      "stateMutability": "view",
      "type": "function"
    },
    {
      "inputs": [
        {
          "internalType": "address",
          "name": "",
          "type": "address"
        }
      ],
      "name": "customerBalance",
      "outputs": [
        {
          "internalType": "uint256",
          "name": "",
          "type": "uint256"
        }
      ],
      "stateMutability": "view",
      "type": "function"
    },
    {
      "inputs": [],
      "name": "depositMoney",
      "outputs": [],
      "stateMutability": "payable",
      "type": "function"
    },
    {
      "inputs": [],
      "name": "getBankBalance",
      "outputs": [
        {
          "internalType": "uint256",
          "name": "",
          "type": "uint256"
        }
      ],
      "stateMutability": "view",
      "type": "function"
    },
    {
      "inputs": [],
      "name": "getCustomerBalance",
      "outputs": [
        {
          "internalType": "uint256",
          "name": "",
          "type": "uint256"
        }
      ],
      "stateMutability": "view",
      "type": "function"
    },
    {
      "inputs": [
        {
          "internalType": "string",
          "name": "_name",
          "type": "string"
        }
      ],
      "name": "setBankName",
      "outputs": [],
      "stateMutability": "nonpayable",
      "type": "function"
    },
    {
      "inputs": [
        {
          "internalType": "address payable",
          "name": "_to",
          "type": "address"
        },
        {
          "internalType": "uint256",
          "name": "_total",
          "type": "uint256"
        }
      ],
      "name": "withdrawMoney",
      "outputs": [],
      "stateMutability": "nonpayable",
      "type": "function"
    },
    {
      "stateMutability": "payable",
      "type": "receive"
    }
  ],
  "bytecode": "0x608060405234801561001057600080fd5b50336000806101000a81548173ffffffffffffffffffffffffffffffffffffffff021916908373ffffffffffffffffffffffffffffffffffffffff160217905550611003806100606000396000f3fe60806040526004361061008a5760003560e01c8063743295ea11610059578063743295ea1461012e5780637b83b50b1461014a578063a853409a14610175578063e147aaa7146101a0578063f274c897146101cb57610091565b806316c05aa21461009357806327d358011461009d57806337ebe47b146100c8578063701426901461010557610091565b3661009157005b005b61009b6101f4565b005b3480156100a957600080fd5b506100b2610290565b6040516100bf9190610872565b60405180910390f35b3480156100d457600080fd5b506100ef60048036038101906100ea9190610906565b61031e565b6040516100fc919061094c565b60405180910390f35b34801561011157600080fd5b5061012c60048036038101906101279190610a9c565b610336565b005b61014860048036038101906101439190610b4f565b6103de565b005b34801561015657600080fd5b5061015f610511565b60405161016c919061094c565b60405180910390f35b34801561018157600080fd5b5061018a6105a8565b604051610197919061094c565b60405180910390f35b3480156101ac57600080fd5b506101b56105ef565b6040516101c29190610b9e565b60405180910390f35b3480156101d757600080fd5b506101f260048036038101906101ed9190610b4f565b610613565b005b6000341415610238576040517f08c379a000000000000000000000000000000000000000000000000000000000815260040161022f90610c2b565b60405180910390fd5b34600260003373ffffffffffffffffffffffffffffffffffffffff1673ffffffffffffffffffffffffffffffffffffffff16815260200190815260200160002060008282546102879190610c7a565b92505081905550565b6001805461029d90610cff565b80601f01602080910402602001604051908101604052809291908181526020018280546102c990610cff565b80156103165780601f106102eb57610100808354040283529160200191610316565b820191906000526020600020905b8154815290600101906020018083116102f957829003601f168201915b505050505081565b60026020528060005260406000206000915090505481565b60008054906101000a900473ffffffffffffffffffffffffffffffffffffffff1673ffffffffffffffffffffffffffffffffffffffff163373ffffffffffffffffffffffffffffffffffffffff16146103c4576040517f08c379a00000000000000000000000000000000000000000000000000000000081526004016103bb90610da3565b60405180910390fd5b80600190805190602001906103da929190610736565b5050565b600260003373ffffffffffffffffffffffffffffffffffffffff1673ffffffffffffffffffffffffffffffffffffffff16815260200190815260200160002054811115610460576040517f08c379a000000000000000000000000000000000000000000000000000000000815260040161045790610e35565b60405180910390fd5b60008273ffffffffffffffffffffffffffffffffffffffff168260405161048690610e86565b60006040518083038185875af1925050503d80600081146104c3576040519150601f19603f3d011682016040523d82523d6000602084013e6104c8565b606091505b505090508061050c576040517f08c379a000000000000000000000000000000000000000000000000000000000815260040161050390610ee7565b60405180910390fd5b505050565b60008060009054906101000a900473ffffffffffffffffffffffffffffffffffffffff1673ffffffffffffffffffffffffffffffffffffffff163373ffffffffffffffffffffffffffffffffffffffff16146105a2576040517f08c379a000000000000000000000000000000000000000000000000000000000815260040161059990610f79565b60405180910390fd5b47905090565b6000600260003373ffffffffffffffffffffffffffffffffffffffff1673ffffffffffffffffffffffffffffffffffffffff16815260200190815260200160002054905090565b60008054906101000a900473ffffffffffffffffffffffffffffffffffffffff1681565b600260003373ffffffffffffffffffffffffffffffffffffffff1673ffffffffffffffffffffffffffffffffffffffff16815260200190815260200160002054811115610695576040517f08c379a000000000000000000000000000000000000000000000000000000000815260040161068c90610e35565b60405180910390fd5b80600260003373ffffffffffffffffffffffffffffffffffffffff1673ffffffffffffffffffffffffffffffffffffffff16815260200190815260200160002060008282546106e49190610f99565b925050819055508173ffffffffffffffffffffffffffffffffffffffff166108fc829081150290604051600060405180830381858888f19350505050158015610731573d6000803e3d6000fd5b505050565b82805461074290610cff565b90600052602060002090601f01602090048101928261076457600085556107ab565b82601f1061077d57805160ff19168380011785556107ab565b828001600101855582156107ab579182015b828111156107aa57825182559160200191906001019061078f565b5b5090506107b891906107bc565b5090565b5b808211156107d55760008160009055506001016107bd565b5090565b600081519050919050565b600082825260208201905092915050565b60005b838110156108135780820151818401526020810190506107f8565b83811115610822576000848401525b50505050565b6000601f19601f8301169050919050565b6000610844826107d9565b61084e81856107e4565b935061085e8185602086016107f5565b61086781610828565b840191505092915050565b6000602082019050818103600083015261088c8184610839565b905092915050565b6000604051905090565b600080fd5b600080fd5b600073ffffffffffffffffffffffffffffffffffffffff82169050919050565b60006108d3826108a8565b9050919050565b6108e3816108c8565b81146108ee57600080fd5b50565b600081359050610900816108da565b92915050565b60006020828403121561091c5761091b61089e565b5b600061092a848285016108f1565b91505092915050565b6000819050919050565b61094681610933565b82525050565b6000602082019050610961600083018461093d565b92915050565b600080fd5b600080fd5b7f4e487b7100000000000000000000000000000000000000000000000000000000600052604160045260246000fd5b6109a982610828565b810181811067ffffffffffffffff821117156109c8576109c7610971565b5b80604052505050565b60006109db610894565b90506109e782826109a0565b919050565b600067ffffffffffffffff821115610a0757610a06610971565b5b610a1082610828565b9050602081019050919050565b82818337600083830152505050565b6000610a3f610a3a846109ec565b6109d1565b905082815260208101848484011115610a5b57610a5a61096c565b5b610a66848285610a1d565b509392505050565b600082601f830112610a8357610a82610967565b5b8135610a93848260208601610a2c565b91505092915050565b600060208284031215610ab257610ab161089e565b5b600082013567ffffffffffffffff811115610ad057610acf6108a3565b5b610adc84828501610a6e565b91505092915050565b6000610af0826108a8565b9050919050565b610b0081610ae5565b8114610b0b57600080fd5b50565b600081359050610b1d81610af7565b92915050565b610b2c81610933565b8114610b3757600080fd5b50565b600081359050610b4981610b23565b92915050565b60008060408385031215610b6657610b6561089e565b5b6000610b7485828601610b0e565b9250506020610b8585828601610b3a565b9150509250929050565b610b98816108c8565b82525050565b6000602082019050610bb36000830184610b8f565b92915050565b7f596f75206e65656420746f206465706f73697420736f6d6520616d6f756e742060008201527f6f66206d6f6e6579210000000000000000000000000000000000000000000000602082015250565b6000610c156029836107e4565b9150610c2082610bb9565b604082019050919050565b60006020820190508181036000830152610c4481610c08565b9050919050565b7f4e487b7100000000000000000000000000000000000000000000000000000000600052601160045260246000fd5b6000610c8582610933565b9150610c9083610933565b9250827fffffffffffffffffffffffffffffffffffffffffffffffffffffffffffffffff03821115610cc557610cc4610c4b565b5b828201905092915050565b7f4e487b7100000000000000000000000000000000000000000000000000000000600052602260045260246000fd5b60006002820490506001821680610d1757607f821691505b60208210811415610d2b57610d2a610cd0565b5b50919050565b7f596f75206d75737420626520746865206f776e657220746f207365742074686560008201527f206e616d65206f66207468652062616e6b000000000000000000000000000000602082015250565b6000610d8d6031836107e4565b9150610d9882610d31565b604082019050919050565b60006020820190508181036000830152610dbc81610d80565b9050919050565b7f596f75206861766520696e7375666669656e742066756e647320746f2077697460008201527f6864726177000000000000000000000000000000000000000000000000000000602082015250565b6000610e1f6025836107e4565b9150610e2a82610dc3565b604082019050919050565b60006020820190508181036000830152610e4e81610e12565b9050919050565b600081905092915050565b50565b6000610e70600083610e55565b9150610e7b82610e60565b600082019050919050565b6000610e9182610e63565b9150819050919050565b7f4661696c656420746f2073656e64204574686572000000000000000000000000600082015250565b6000610ed16014836107e4565b9150610edc82610e9b565b602082019050919050565b60006020820190508181036000830152610f0081610ec4565b9050919050565b7f596f75206d75737420626520746865206f776e6572206f66207468652062616e60008201527f6b20746f2073656520616c6c2062616c616e6365732e00000000000000000000602082015250565b6000610f636036836107e4565b9150610f6e82610f07565b604082019050919050565b60006020820190508181036000830152610f9281610f56565b9050919050565b6000610fa482610933565b9150610faf83610933565b925082821015610fc257610fc1610c4b565b5b82820390509291505056fea264697066735822122062268f3a4058a25907b4e398aaecd6f89f2bdafd34c73efda59b30dba44a14b664736f6c63430008090033",
  "linkReferences": {},
  "deployedLinkReferences": {}
}