{
  "_format": "hh-sol-artifact-1",
  "contractName": "Bank",
  "sourceName": "contracts/BankContract.sol",
  "abi": [
    {
      "inputs": [],
      "stateMutability": "nonpayable",
      "type": "constructor"
    },
    {
      "stateMutability": "payable",
      "type": "fallback"
    },
    {
      "inputs": [],
      "name": "bankName",
      "outputs": [
        {
          "internalType": "string",
          "name": "",
          "type": "string"
        }
      ],
      "stateMutability": "view",
      "type": "function"
    },
    {
      "inputs": [],
      "name": "bankOwner",
      "outputs": [
        {
          "internalType": "address",
          "name": "",
          "type": "address"
        }
      ],
      "stateMutability": "view",
      "type": "function"
    },
    {
      "inputs": [
        {
          "internalType": "address",
          "name": "",
          "type": "address"
        }
      ],
      "name": "customerBalance",
      "outputs": [
        {
          "internalType": "uint256",
          "name": "",
          "type": "uint256"
        }
      ],
      "stateMutability": "view",
      "type": "function"
    },
    {
      "inputs": [],
      "name": "depositMoney",
      "outputs": [],
      "stateMutability": "payable",
      "type": "function"
    },
    {
      "inputs": [],
      "name": "getBankBalance",
      "outputs": [
        {
          "internalType": "uint256",
          "name": "",
          "type": "uint256"
        }
      ],
      "stateMutability": "view",
      "type": "function"
    },
    {
      "inputs": [],
      "name": "getCustomerBalance",
      "outputs": [
        {
          "internalType": "uint256",
          "name": "",
          "type": "uint256"
        }
      ],
      "stateMutability": "view",
      "type": "function"
    },
    {
      "inputs": [
        {
          "internalType": "string",
          "name": "_name",
          "type": "string"
        }
      ],
      "name": "setBankName",
      "outputs": [],
      "stateMutability": "nonpayable",
      "type": "function"
    },
    {
      "inputs": [
        {
          "internalType": "address payable",
          "name": "_to",
          "type": "address"
        },
        {
          "internalType": "uint256",
          "name": "_total",
          "type": "uint256"
        }
      ],
      "name": "withdrawMoney",
      "outputs": [],
      "stateMutability": "nonpayable",
      "type": "function"
    },
    {
      "stateMutability": "payable",
      "type": "receive"
    }
  ],
  "bytecode": "0x608060405234801561001057600080fd5b50336000806101000a81548173ffffffffffffffffffffffffffffffffffffffff021916908373ffffffffffffffffffffffffffffffffffffffff160217905550610df7806100606000396000f3fe60806040526004361061007f5760003560e01c80637b83b50b1161004e5780637b83b50b14610123578063a853409a1461014e578063e147aaa714610179578063f274c897146101a457610086565b806316c05aa21461008857806327d358011461009257806337ebe47b146100bd57806370142690146100fa57610086565b3661008657005b005b6100906101cd565b005b34801561009e57600080fd5b506100a7610269565b6040516100b49190610718565b60405180910390f35b3480156100c957600080fd5b506100e460048036038101906100df91906107ac565b6102f7565b6040516100f191906107f2565b60405180910390f35b34801561010657600080fd5b50610121600480360381019061011c9190610942565b61030f565b005b34801561012f57600080fd5b506101386103b7565b60405161014591906107f2565b60405180910390f35b34801561015a57600080fd5b5061016361044e565b60405161017091906107f2565b60405180910390f35b34801561018557600080fd5b5061018e610495565b60405161019b919061099a565b60405180910390f35b3480156101b057600080fd5b506101cb60048036038101906101c69190610a1f565b6104b9565b005b6000341415610211576040517f08c379a000000000000000000000000000000000000000000000000000000000815260040161020890610ad1565b60405180910390fd5b34600260003373ffffffffffffffffffffffffffffffffffffffff1673ffffffffffffffffffffffffffffffffffffffff16815260200190815260200160002060008282546102609190610b20565b92505081905550565b6001805461027690610ba5565b80601f01602080910402602001604051908101604052809291908181526020018280546102a290610ba5565b80156102ef5780601f106102c4576101008083540402835291602001916102ef565b820191906000526020600020905b8154815290600101906020018083116102d257829003601f168201915b505050505081565b60026020528060005260406000206000915090505481565b60008054906101000a900473ffffffffffffffffffffffffffffffffffffffff1673ffffffffffffffffffffffffffffffffffffffff163373ffffffffffffffffffffffffffffffffffffffff161461039d576040517f08c379a000000000000000000000000000000000000000000000000000000000815260040161039490610c49565b60405180910390fd5b80600190805190602001906103b39291906105dc565b5050565b60008060009054906101000a900473ffffffffffffffffffffffffffffffffffffffff1673ffffffffffffffffffffffffffffffffffffffff163373ffffffffffffffffffffffffffffffffffffffff1614610448576040517f08c379a000000000000000000000000000000000000000000000000000000000815260040161043f90610cdb565b60405180910390fd5b47905090565b6000600260003373ffffffffffffffffffffffffffffffffffffffff1673ffffffffffffffffffffffffffffffffffffffff16815260200190815260200160002054905090565b60008054906101000a900473ffffffffffffffffffffffffffffffffffffffff1681565b600260003373ffffffffffffffffffffffffffffffffffffffff1673ffffffffffffffffffffffffffffffffffffffff1681526020019081526020016000205481111561053b576040517f08c379a000000000000000000000000000000000000000000000000000000000815260040161053290610d6d565b60405180910390fd5b80600260003373ffffffffffffffffffffffffffffffffffffffff1673ffffffffffffffffffffffffffffffffffffffff168152602001908152602001600020600082825461058a9190610d8d565b925050819055508173ffffffffffffffffffffffffffffffffffffffff166108fc829081150290604051600060405180830381858888f193505050501580156105d7573d6000803e3d6000fd5b505050565b8280546105e890610ba5565b90600052602060002090601f01602090048101928261060a5760008555610651565b82601f1061062357805160ff1916838001178555610651565b82800160010185558215610651579182015b82811115610650578251825591602001919060010190610635565b5b50905061065e9190610662565b5090565b5b8082111561067b576000816000905550600101610663565b5090565b600081519050919050565b600082825260208201905092915050565b60005b838110156106b957808201518184015260208101905061069e565b838111156106c8576000848401525b50505050565b6000601f19601f8301169050919050565b60006106ea8261067f565b6106f4818561068a565b935061070481856020860161069b565b61070d816106ce565b840191505092915050565b6000602082019050818103600083015261073281846106df565b905092915050565b6000604051905090565b600080fd5b600080fd5b600073ffffffffffffffffffffffffffffffffffffffff82169050919050565b60006107798261074e565b9050919050565b6107898161076e565b811461079457600080fd5b50565b6000813590506107a681610780565b92915050565b6000602082840312156107c2576107c1610744565b5b60006107d084828501610797565b91505092915050565b6000819050919050565b6107ec816107d9565b82525050565b600060208201905061080760008301846107e3565b92915050565b600080fd5b600080fd5b7f4e487b7100000000000000000000000000000000000000000000000000000000600052604160045260246000fd5b61084f826106ce565b810181811067ffffffffffffffff8211171561086e5761086d610817565b5b80604052505050565b600061088161073a565b905061088d8282610846565b919050565b600067ffffffffffffffff8211156108ad576108ac610817565b5b6108b6826106ce565b9050602081019050919050565b82818337600083830152505050565b60006108e56108e084610892565b610877565b90508281526020810184848401111561090157610900610812565b5b61090c8482856108c3565b509392505050565b600082601f8301126109295761092861080d565b5b81356109398482602086016108d2565b91505092915050565b60006020828403121561095857610957610744565b5b600082013567ffffffffffffffff81111561097657610975610749565b5b61098284828501610914565b91505092915050565b6109948161076e565b82525050565b60006020820190506109af600083018461098b565b92915050565b60006109c08261074e565b9050919050565b6109d0816109b5565b81146109db57600080fd5b50565b6000813590506109ed816109c7565b92915050565b6109fc816107d9565b8114610a0757600080fd5b50565b600081359050610a19816109f3565b92915050565b60008060408385031215610a3657610a35610744565b5b6000610a44858286016109de565b9250506020610a5585828601610a0a565b9150509250929050565b7f596f75206e65656420746f206465706f73697420736f6d6520616d6f756e742060008201527f6f66206d6f6e6579210000000000000000000000000000000000000000000000602082015250565b6000610abb60298361068a565b9150610ac682610a5f565b604082019050919050565b60006020820190508181036000830152610aea81610aae565b9050919050565b7f4e487b7100000000000000000000000000000000000000000000000000000000600052601160045260246000fd5b6000610b2b826107d9565b9150610b36836107d9565b9250827fffffffffffffffffffffffffffffffffffffffffffffffffffffffffffffffff03821115610b6b57610b6a610af1565b5b828201905092915050565b7f4e487b7100000000000000000000000000000000000000000000000000000000600052602260045260246000fd5b60006002820490506001821680610bbd57607f821691505b60208210811415610bd157610bd0610b76565b5b50919050565b7f596f75206d75737420626520746865206f776e657220746f207365742074686560008201527f206e616d65206f66207468652062616e6b000000000000000000000000000000602082015250565b6000610c3360318361068a565b9150610c3e82610bd7565b604082019050919050565b60006020820190508181036000830152610c6281610c26565b9050919050565b7f596f75206d75737420626520746865206f776e6572206f66207468652062616e60008201527f6b20746f2073656520616c6c2062616c616e6365732e00000000000000000000602082015250565b6000610cc560368361068a565b9150610cd082610c69565b604082019050919050565b60006020820190508181036000830152610cf481610cb8565b9050919050565b7f596f75206861766520696e7375666669656e742066756e647320746f2077697460008201527f6864726177000000000000000000000000000000000000000000000000000000602082015250565b6000610d5760258361068a565b9150610d6282610cfb565b604082019050919050565b60006020820190508181036000830152610d8681610d4a565b9050919050565b6000610d98826107d9565b9150610da3836107d9565b925082821015610db657610db5610af1565b5b82820390509291505056fea264697066735822122087c3c601bf2b8e2d6093b85f74980e0eb4f72a433341ef251689e8adf665ce3f64736f6c63430008090033",
  "linkReferences": {},
  "deployedLinkReferences": {}
}