{
  "_format": "hh-sol-artifact-1",
  "contractName": "NextCoin",
  "sourceName": "contracts/BankContract.sol",
  "abi": [
    {
      "inputs": [],
      "stateMutability": "nonpayable",
      "type": "constructor"
    },
    {
      "anonymous": false,
      "inputs": [
        {
          "indexed": true,
          "internalType": "address",
          "name": "owner",
          "type": "address"
        },
        {
          "indexed": true,
          "internalType": "address",
          "name": "spender",
          "type": "address"
        },
        {
          "indexed": false,
          "internalType": "uint256",
          "name": "value",
          "type": "uint256"
        }
      ],
      "name": "Approval",
      "type": "event"
    },
    {
      "anonymous": false,
      "inputs": [
        {
          "indexed": true,
          "internalType": "address",
          "name": "previousOwner",
          "type": "address"
        },
        {
          "indexed": true,
          "internalType": "address",
          "name": "newOwner",
          "type": "address"
        }
      ],
      "name": "OwnershipTransferred",
      "type": "event"
    },
    {
      "anonymous": false,
      "inputs": [
        {
          "indexed": true,
          "internalType": "address",
          "name": "from",
          "type": "address"
        },
        {
          "indexed": true,
          "internalType": "address",
          "name": "to",
          "type": "address"
        },
        {
          "indexed": false,
          "internalType": "uint256",
          "name": "value",
          "type": "uint256"
        }
      ],
      "name": "Transfer",
      "type": "event"
    },
    {
      "anonymous": false,
      "inputs": [
        {
          "indexed": true,
          "internalType": "address",
          "name": "owner",
          "type": "address"
        },
        {
          "indexed": false,
          "internalType": "uint256",
          "name": "amount",
          "type": "uint256"
        },
        {
          "indexed": false,
          "internalType": "string",
          "name": "message",
          "type": "string"
        }
      ],
      "name": "additionalTokensMinted",
      "type": "event"
    },
    {
      "anonymous": false,
      "inputs": [
        {
          "indexed": false,
          "internalType": "address",
          "name": "sender",
          "type": "address"
        },
        {
          "indexed": false,
          "internalType": "string",
          "name": "message",
          "type": "string"
        }
      ],
      "name": "storedResponse",
      "type": "event"
    },
    {
      "anonymous": false,
      "inputs": [
        {
          "indexed": true,
          "internalType": "address",
          "name": "owner",
          "type": "address"
        },
        {
          "indexed": false,
          "internalType": "uint256",
          "name": "amount",
          "type": "uint256"
        },
        {
          "indexed": false,
          "internalType": "string",
          "name": "message",
          "type": "string"
        }
      ],
      "name": "tokensBurned",
      "type": "event"
    },
    {
      "anonymous": false,
      "inputs": [
        {
          "indexed": true,
          "internalType": "address",
          "name": "owner",
          "type": "address"
        },
        {
          "indexed": false,
          "internalType": "uint256",
          "name": "amount",
          "type": "uint256"
        },
        {
          "indexed": false,
          "internalType": "string",
          "name": "message",
          "type": "string"
        }
      ],
      "name": "tokensMinted",
      "type": "event"
    },
    {
      "stateMutability": "payable",
      "type": "fallback"
    },
    {
      "inputs": [
        {
          "internalType": "address payable",
          "name": "_to",
          "type": "address"
        },
        {
          "internalType": "uint256",
          "name": "_fund",
          "type": "uint256"
        }
      ],
      "name": "DonateFunds",
      "outputs": [],
      "stateMutability": "payable",
      "type": "function"
    },
    {
      "inputs": [
        {
          "internalType": "address",
          "name": "owner",
          "type": "address"
        },
        {
          "internalType": "address",
          "name": "spender",
          "type": "address"
        }
      ],
      "name": "allowance",
      "outputs": [
        {
          "internalType": "uint256",
          "name": "",
          "type": "uint256"
        }
      ],
      "stateMutability": "view",
      "type": "function"
    },
    {
      "inputs": [
        {
          "internalType": "address",
          "name": "spender",
          "type": "address"
        },
        {
          "internalType": "uint256",
          "name": "amount",
          "type": "uint256"
        }
      ],
      "name": "approve",
      "outputs": [
        {
          "internalType": "bool",
          "name": "",
          "type": "bool"
        }
      ],
      "stateMutability": "nonpayable",
      "type": "function"
    },
    {
      "inputs": [
        {
          "internalType": "address",
          "name": "account",
          "type": "address"
        }
      ],
      "name": "balanceOf",
      "outputs": [
        {
          "internalType": "uint256",
          "name": "",
          "type": "uint256"
        }
      ],
      "stateMutability": "view",
      "type": "function"
    },
    {
      "inputs": [
        {
          "internalType": "uint256",
          "name": "amount",
          "type": "uint256"
        }
      ],
      "name": "burn",
      "outputs": [],
      "stateMutability": "nonpayable",
      "type": "function"
    },
    {
      "inputs": [
        {
          "internalType": "address",
          "name": "account",
          "type": "address"
        },
        {
          "internalType": "uint256",
          "name": "amount",
          "type": "uint256"
        }
      ],
      "name": "burnFrom",
      "outputs": [],
      "stateMutability": "nonpayable",
      "type": "function"
    },
    {
      "inputs": [],
      "name": "communityAdmin",
      "outputs": [
        {
          "internalType": "address",
          "name": "",
          "type": "address"
        }
      ],
      "stateMutability": "view",
      "type": "function"
    },
    {
      "inputs": [],
      "name": "communityName",
      "outputs": [
        {
          "internalType": "string",
          "name": "",
          "type": "string"
        }
      ],
      "stateMutability": "view",
      "type": "function"
    },
    {
      "inputs": [],
      "name": "decimals",
      "outputs": [
        {
          "internalType": "uint8",
          "name": "",
          "type": "uint8"
        }
      ],
      "stateMutability": "view",
      "type": "function"
    },
    {
      "inputs": [
        {
          "internalType": "address",
          "name": "spender",
          "type": "address"
        },
        {
          "internalType": "uint256",
          "name": "subtractedValue",
          "type": "uint256"
        }
      ],
      "name": "decreaseAllowance",
      "outputs": [
        {
          "internalType": "bool",
          "name": "",
          "type": "bool"
        }
      ],
      "stateMutability": "nonpayable",
      "type": "function"
    },
    {
      "inputs": [],
      "name": "depositMoney",
      "outputs": [],
      "stateMutability": "payable",
      "type": "function"
    },
    {
      "inputs": [],
      "name": "getCommunityBalance",
      "outputs": [
        {
          "internalType": "uint256",
          "name": "",
          "type": "uint256"
        }
      ],
      "stateMutability": "view",
      "type": "function"
    },
    {
      "inputs": [],
      "name": "getUserBalance",
      "outputs": [
        {
          "internalType": "uint256",
          "name": "",
          "type": "uint256"
        }
      ],
      "stateMutability": "view",
      "type": "function"
    },
    {
      "inputs": [
        {
          "internalType": "address",
          "name": "spender",
          "type": "address"
        },
        {
          "internalType": "uint256",
          "name": "addedValue",
          "type": "uint256"
        }
      ],
      "name": "increaseAllowance",
      "outputs": [
        {
          "internalType": "bool",
          "name": "",
          "type": "bool"
        }
      ],
      "stateMutability": "nonpayable",
      "type": "function"
    },
    {
      "inputs": [
        {
          "internalType": "address",
          "name": "to",
          "type": "address"
        },
        {
          "internalType": "uint256",
          "name": "amount",
          "type": "uint256"
        }
      ],
      "name": "mint",
      "outputs": [],
      "stateMutability": "nonpayable",
      "type": "function"
    },
    {
      "inputs": [],
      "name": "name",
      "outputs": [
        {
          "internalType": "string",
          "name": "",
          "type": "string"
        }
      ],
      "stateMutability": "view",
      "type": "function"
    },
    {
      "inputs": [],
      "name": "owner",
      "outputs": [
        {
          "internalType": "address",
          "name": "",
          "type": "address"
        }
      ],
      "stateMutability": "view",
      "type": "function"
    },
    {
      "inputs": [],
      "name": "renounceOwnership",
      "outputs": [],
      "stateMutability": "nonpayable",
      "type": "function"
    },
    {
      "inputs": [
        {
          "internalType": "string",
          "name": "_name",
          "type": "string"
        }
      ],
      "name": "setCommunityName",
      "outputs": [],
      "stateMutability": "nonpayable",
      "type": "function"
    },
    {
      "inputs": [],
      "name": "symbol",
      "outputs": [
        {
          "internalType": "string",
          "name": "",
          "type": "string"
        }
      ],
      "stateMutability": "view",
      "type": "function"
    },
    {
      "inputs": [],
      "name": "totalSupply",
      "outputs": [
        {
          "internalType": "uint256",
          "name": "",
          "type": "uint256"
        }
      ],
      "stateMutability": "view",
      "type": "function"
    },
    {
      "inputs": [
        {
          "internalType": "address",
          "name": "to",
          "type": "address"
        },
        {
          "internalType": "uint256",
          "name": "amount",
          "type": "uint256"
        }
      ],
      "name": "transfer",
      "outputs": [
        {
          "internalType": "bool",
          "name": "",
          "type": "bool"
        }
      ],
      "stateMutability": "nonpayable",
      "type": "function"
    },
    {
      "inputs": [
        {
          "internalType": "address",
          "name": "from",
          "type": "address"
        },
        {
          "internalType": "address",
          "name": "to",
          "type": "address"
        },
        {
          "internalType": "uint256",
          "name": "amount",
          "type": "uint256"
        }
      ],
      "name": "transferFrom",
      "outputs": [
        {
          "internalType": "bool",
          "name": "",
          "type": "bool"
        }
      ],
      "stateMutability": "nonpayable",
      "type": "function"
    },
    {
      "inputs": [
        {
          "internalType": "address",
          "name": "newOwner",
          "type": "address"
        }
      ],
      "name": "transferOwnership",
      "outputs": [],
      "stateMutability": "nonpayable",
      "type": "function"
    },
    {
      "inputs": [
        {
          "internalType": "address",
          "name": "",
          "type": "address"
        }
      ],
      "name": "userBalance",
      "outputs": [
        {
          "internalType": "uint256",
          "name": "",
          "type": "uint256"
        }
      ],
      "stateMutability": "view",
      "type": "function"
    },
    {
      "inputs": [
        {
          "internalType": "address payable",
          "name": "_to",
          "type": "address"
        },
        {
          "internalType": "uint256",
          "name": "_total",
          "type": "uint256"
        }
      ],
      "name": "withdrawMoney",
      "outputs": [],
      "stateMutability": "nonpayable",
      "type": "function"
    },
    {
      "stateMutability": "payable",
      "type": "receive"
    }
  ],
  "bytecode": "0x60806040523480156200001157600080fd5b506040518060400160405280600881526020017f4e657874436f696e0000000000000000000000000000000000000000000000008152506040518060400160405280600381526020017f4e584300000000000000000000000000000000000000000000000000000000008152508160039080519060200190620000969291906200042d565b508060049080519060200190620000af9291906200042d565b505050620000d2620000c6620001d360201b60201c565b620001db60201b60201c565b33600660006101000a81548173ffffffffffffffffffffffffffffffffffffffff021916908373ffffffffffffffffffffffffffffffffffffffff160217905550620001513362000128620002a160201b60201c565b600a62000136919062000677565b6103e8620001459190620006c8565b620002aa60201b60201c565b3373ffffffffffffffffffffffffffffffffffffffff167f8d54cf4376f9d10619fbb6aded215dcdffc1b80415e0750f5064018278632d0762000199620002a160201b60201c565b600a620001a7919062000677565b6103e8620001b69190620006c8565b604051620001c591906200079b565b60405180910390a26200091e565b600033905090565b6000600560009054906101000a900473ffffffffffffffffffffffffffffffffffffffff16905081600560006101000a81548173ffffffffffffffffffffffffffffffffffffffff021916908373ffffffffffffffffffffffffffffffffffffffff1602179055508173ffffffffffffffffffffffffffffffffffffffff168173ffffffffffffffffffffffffffffffffffffffff167f8be0079c531659141344cd1fd0a4f28419497f9722a3daafe3b4186f6b6457e060405160405180910390a35050565b60006012905090565b600073ffffffffffffffffffffffffffffffffffffffff168273ffffffffffffffffffffffffffffffffffffffff1614156200031d576040517f08c379a000000000000000000000000000000000000000000000000000000000815260040162000314906200081d565b60405180910390fd5b62000331600083836200042360201b60201c565b80600260008282546200034591906200083f565b92505081905550806000808473ffffffffffffffffffffffffffffffffffffffff1673ffffffffffffffffffffffffffffffffffffffff16815260200190815260200160002060008282546200039c91906200083f565b925050819055508173ffffffffffffffffffffffffffffffffffffffff16600073ffffffffffffffffffffffffffffffffffffffff167fddf252ad1be2c89b69c2b068fc378daa952ba7f163c4a11628f55a4df523b3ef836040516200040391906200089c565b60405180910390a36200041f600083836200042860201b60201c565b5050565b505050565b505050565b8280546200043b90620008e8565b90600052602060002090601f0160209004810192826200045f5760008555620004ab565b82601f106200047a57805160ff1916838001178555620004ab565b82800160010185558215620004ab579182015b82811115620004aa5782518255916020019190600101906200048d565b5b509050620004ba9190620004be565b5090565b5b80821115620004d9576000816000905550600101620004bf565b5090565b7f4e487b7100000000000000000000000000000000000000000000000000000000600052601160045260246000fd5b60008160011c9050919050565b6000808291508390505b60018511156200056b57808604811115620005435762000542620004dd565b5b6001851615620005535780820291505b808102905062000563856200050c565b945062000523565b94509492505050565b60008262000586576001905062000659565b8162000596576000905062000659565b8160018114620005af5760028114620005ba57620005f0565b600191505062000659565b60ff841115620005cf57620005ce620004dd565b5b8360020a915084821115620005e957620005e8620004dd565b5b5062000659565b5060208310610133831016604e8410600b84101617156200062a5782820a905083811115620006245762000623620004dd565b5b62000659565b62000639848484600162000519565b92509050818404811115620006535762000652620004dd565b5b81810290505b9392505050565b6000819050919050565b600060ff82169050919050565b6000620006848262000660565b915062000691836200066a565b9250620006c07fffffffffffffffffffffffffffffffffffffffffffffffffffffffffffffffff848462000574565b905092915050565b6000620006d58262000660565b9150620006e28362000660565b9250817fffffffffffffffffffffffffffffffffffffffffffffffffffffffffffffffff04831182151516156200071e576200071d620004dd565b5b828202905092915050565b620007348162000660565b82525050565b600082825260208201905092915050565b7f496e697469616c20737570706c79206f6620746f6b656e73206d696e7465642e600082015250565b6000620007836020836200073a565b915062000790826200074b565b602082019050919050565b6000604082019050620007b2600083018462000729565b8181036020830152620007c58162000774565b905092915050565b7f45524332303a206d696e7420746f20746865207a65726f206164647265737300600082015250565b600062000805601f836200073a565b91506200081282620007cd565b602082019050919050565b600060208201905081810360008301526200083881620007f6565b9050919050565b60006200084c8262000660565b9150620008598362000660565b9250827fffffffffffffffffffffffffffffffffffffffffffffffffffffffffffffffff03821115620008915762000890620004dd565b5b828201905092915050565b6000602082019050620008b3600083018462000729565b92915050565b7f4e487b7100000000000000000000000000000000000000000000000000000000600052602260045260246000fd5b600060028204905060018216806200090157607f821691505b60208210811415620009185762000917620008b9565b5b50919050565b612c26806200092e6000396000f3fe6080604052600436106101855760003560e01c8063715018a6116100d1578063a9059cbb1161008a578063c6d572ae11610064578063c6d572ae14610572578063dd62ed3e1461059d578063f274c897146105da578063f2fde38b146106035761018c565b8063a9059cbb146104e1578063b7013dc11461051e578063b9bfdf69146105495761018c565b8063715018a6146103f2578063743295ea1461040957806379cc6790146104255780638da5cb5b1461044e57806395d89b4114610479578063a457c2d7146104a45761018c565b806323b872dd1161013e57806340c10f191161011857806340c10f191461033857806342966c68146103615780635fac917a1461038a57806370a08231146103b55761018c565b806323b872dd14610293578063313ce567146102d057806339509351146102fb5761018c565b80630103c92b1461018e57806306fdde03146101cb578063095ea7b3146101f657806316c05aa21461023357806318160ddd1461023d5780632083ec64146102685761018c565b3661018c57005b005b34801561019a57600080fd5b506101b560048036038101906101b09190611b15565b61062c565b6040516101c29190611b5b565b60405180910390f35b3480156101d757600080fd5b506101e0610644565b6040516101ed9190611c0f565b60405180910390f35b34801561020257600080fd5b5061021d60048036038101906102189190611c5d565b6106d6565b60405161022a9190611cb8565b60405180910390f35b61023b6106f9565b005b34801561024957600080fd5b50610252610795565b60405161025f9190611b5b565b60405180910390f35b34801561027457600080fd5b5061027d61079f565b60405161028a9190611b5b565b60405180910390f35b34801561029f57600080fd5b506102ba60048036038101906102b59190611cd3565b610837565b6040516102c79190611cb8565b60405180910390f35b3480156102dc57600080fd5b506102e5610866565b6040516102f29190611d42565b60405180910390f35b34801561030757600080fd5b50610322600480360381019061031d9190611c5d565b61086f565b60405161032f9190611cb8565b60405180910390f35b34801561034457600080fd5b5061035f600480360381019061035a9190611c5d565b6108a6565b005b34801561036d57600080fd5b5061038860048036038101906103839190611d5d565b61090a565b005b34801561039657600080fd5b5061039f61096d565b6040516103ac9190611d99565b60405180910390f35b3480156103c157600080fd5b506103dc60048036038101906103d79190611b15565b610993565b6040516103e99190611b5b565b60405180910390f35b3480156103fe57600080fd5b506104076109db565b005b610423600480360381019061041e9190611df2565b6109ef565b005b34801561043157600080fd5b5061044c60048036038101906104479190611c5d565b610b78565b005b34801561045a57600080fd5b50610463610b98565b6040516104709190611d99565b60405180910390f35b34801561048557600080fd5b5061048e610bc2565b60405161049b9190611c0f565b60405180910390f35b3480156104b057600080fd5b506104cb60048036038101906104c69190611c5d565b610c54565b6040516104d89190611cb8565b60405180910390f35b3480156104ed57600080fd5b5061050860048036038101906105039190611c5d565b610ccb565b6040516105159190611cb8565b60405180910390f35b34801561052a57600080fd5b50610533610cee565b6040516105409190611b5b565b60405180910390f35b34801561055557600080fd5b50610570600480360381019061056b9190611f67565b610d35565b005b34801561057e57600080fd5b50610587610ddf565b6040516105949190611c0f565b60405180910390f35b3480156105a957600080fd5b506105c460048036038101906105bf9190611fb0565b610e6d565b6040516105d19190611b5b565b60405180910390f35b3480156105e657600080fd5b5061060160048036038101906105fc9190611df2565b610ef4565b005b34801561060f57600080fd5b5061062a60048036038101906106259190611b15565b611017565b005b60086020528060005260406000206000915090505481565b6060600380546106539061201f565b80601f016020809104026020016040519081016040528092919081815260200182805461067f9061201f565b80156106cc5780601f106106a1576101008083540402835291602001916106cc565b820191906000526020600020905b8154815290600101906020018083116106af57829003601f168201915b5050505050905090565b6000806106e161109b565b90506106ee8185856110a3565b600191505092915050565b600034141561073d576040517f08c379a0000000000000000000000000000000000000000000000000000000008152600401610734906120c3565b60405180910390fd5b34600860003373ffffffffffffffffffffffffffffffffffffffff1673ffffffffffffffffffffffffffffffffffffffff168152602001908152602001600020600082825461078c9190612112565b92505081905550565b6000600254905090565b6000600660009054906101000a900473ffffffffffffffffffffffffffffffffffffffff1673ffffffffffffffffffffffffffffffffffffffff163373ffffffffffffffffffffffffffffffffffffffff1614610831576040517f08c379a0000000000000000000000000000000000000000000000000000000008152600401610828906121da565b60405180910390fd5b47905090565b60008061084261109b565b905061084f85828561126e565b61085a8585856112fa565b60019150509392505050565b60006012905090565b60008061087a61109b565b905061089b81858561088c8589610e6d565b6108969190612112565b6110a3565b600191505092915050565b6108ae61157b565b6108b882826115f9565b3373ffffffffffffffffffffffffffffffffffffffff167fc31b604bce0888a4f5e36e76eee33516a5fff7a5d58ac7dcead8174c323eebf2826040516108fe9190612246565b60405180910390a25050565b61091261157b565b61091c3382611759565b3373ffffffffffffffffffffffffffffffffffffffff167fcde716650b13ae41f235d679e62500d67355bc41802e6cfc087b67a7850d975f8260405161096291906122c0565b60405180910390a250565b600660009054906101000a900473ffffffffffffffffffffffffffffffffffffffff1681565b60008060008373ffffffffffffffffffffffffffffffffffffffff1673ffffffffffffffffffffffffffffffffffffffff168152602001908152602001600020549050919050565b6109e361157b565b6109ed6000611930565b565b600860003373ffffffffffffffffffffffffffffffffffffffff1673ffffffffffffffffffffffffffffffffffffffff16815260200190815260200160002054811115610a71576040517f08c379a0000000000000000000000000000000000000000000000000000000008152600401610a6890612360565b60405180910390fd5b80600860003373ffffffffffffffffffffffffffffffffffffffff1673ffffffffffffffffffffffffffffffffffffffff1681526020019081526020016000206000828254610ac09190612380565b9250508190555060008273ffffffffffffffffffffffffffffffffffffffff1682604051610aed906123e5565b60006040518083038185875af1925050503d8060008114610b2a576040519150601f19603f3d011682016040523d82523d6000602084013e610b2f565b606091505b5050905080610b73576040517f08c379a0000000000000000000000000000000000000000000000000000000008152600401610b6a90612446565b60405180910390fd5b505050565b610b8a82610b8461109b565b8361126e565b610b948282611759565b5050565b6000600560009054906101000a900473ffffffffffffffffffffffffffffffffffffffff16905090565b606060048054610bd19061201f565b80601f0160208091040260200160405190810160405280929190818152602001828054610bfd9061201f565b8015610c4a5780601f10610c1f57610100808354040283529160200191610c4a565b820191906000526020600020905b815481529060010190602001808311610c2d57829003601f168201915b5050505050905090565b600080610c5f61109b565b90506000610c6d8286610e6d565b905083811015610cb2576040517f08c379a0000000000000000000000000000000000000000000000000000000008152600401610ca9906124d8565b60405180910390fd5b610cbf82868684036110a3565b60019250505092915050565b600080610cd661109b565b9050610ce38185856112fa565b600191505092915050565b6000600860003373ffffffffffffffffffffffffffffffffffffffff1673ffffffffffffffffffffffffffffffffffffffff16815260200190815260200160002054905090565b600660009054906101000a900473ffffffffffffffffffffffffffffffffffffffff1673ffffffffffffffffffffffffffffffffffffffff163373ffffffffffffffffffffffffffffffffffffffff1614610dc5576040517f08c379a0000000000000000000000000000000000000000000000000000000008152600401610dbc9061256a565b60405180910390fd5b8060079080519060200190610ddb929190611a00565b5050565b60078054610dec9061201f565b80601f0160208091040260200160405190810160405280929190818152602001828054610e189061201f565b8015610e655780601f10610e3a57610100808354040283529160200191610e65565b820191906000526020600020905b815481529060010190602001808311610e4857829003601f168201915b505050505081565b6000600160008473ffffffffffffffffffffffffffffffffffffffff1673ffffffffffffffffffffffffffffffffffffffff16815260200190815260200160002060008373ffffffffffffffffffffffffffffffffffffffff1673ffffffffffffffffffffffffffffffffffffffff16815260200190815260200160002054905092915050565b600860003373ffffffffffffffffffffffffffffffffffffffff1673ffffffffffffffffffffffffffffffffffffffff16815260200190815260200160002054811115610f76576040517f08c379a0000000000000000000000000000000000000000000000000000000008152600401610f6d906125fc565b60405180910390fd5b80600860003373ffffffffffffffffffffffffffffffffffffffff1673ffffffffffffffffffffffffffffffffffffffff1681526020019081526020016000206000828254610fc59190612380565b925050819055508173ffffffffffffffffffffffffffffffffffffffff166108fc829081150290604051600060405180830381858888f19350505050158015611012573d6000803e3d6000fd5b505050565b61101f61157b565b600073ffffffffffffffffffffffffffffffffffffffff168173ffffffffffffffffffffffffffffffffffffffff16141561108f576040517f08c379a00000000000000000000000000000000000000000000000000000000081526004016110869061268e565b60405180910390fd5b61109881611930565b50565b600033905090565b600073ffffffffffffffffffffffffffffffffffffffff168373ffffffffffffffffffffffffffffffffffffffff161415611113576040517f08c379a000000000000000000000000000000000000000000000000000000000815260040161110a90612720565b60405180910390fd5b600073ffffffffffffffffffffffffffffffffffffffff168273ffffffffffffffffffffffffffffffffffffffff161415611183576040517f08c379a000000000000000000000000000000000000000000000000000000000815260040161117a906127b2565b60405180910390fd5b80600160008573ffffffffffffffffffffffffffffffffffffffff1673ffffffffffffffffffffffffffffffffffffffff16815260200190815260200160002060008473ffffffffffffffffffffffffffffffffffffffff1673ffffffffffffffffffffffffffffffffffffffff168152602001908152602001600020819055508173ffffffffffffffffffffffffffffffffffffffff168373ffffffffffffffffffffffffffffffffffffffff167f8c5be1e5ebec7d5bd14f71427d1e84f3dd0314c0f7b2291e5b200ac8c7c3b925836040516112619190611b5b565b60405180910390a3505050565b600061127a8484610e6d565b90507fffffffffffffffffffffffffffffffffffffffffffffffffffffffffffffffff81146112f457818110156112e6576040517f08c379a00000000000000000000000000000000000000000000000000000000081526004016112dd9061281e565b60405180910390fd5b6112f384848484036110a3565b5b50505050565b600073ffffffffffffffffffffffffffffffffffffffff168373ffffffffffffffffffffffffffffffffffffffff16141561136a576040517f08c379a0000000000000000000000000000000000000000000000000000000008152600401611361906128b0565b60405180910390fd5b600073ffffffffffffffffffffffffffffffffffffffff168273ffffffffffffffffffffffffffffffffffffffff1614156113da576040517f08c379a00000000000000000000000000000000000000000000000000000000081526004016113d190612942565b60405180910390fd5b6113e58383836119f6565b60008060008573ffffffffffffffffffffffffffffffffffffffff1673ffffffffffffffffffffffffffffffffffffffff1681526020019081526020016000205490508181101561146b576040517f08c379a0000000000000000000000000000000000000000000000000000000008152600401611462906129d4565b60405180910390fd5b8181036000808673ffffffffffffffffffffffffffffffffffffffff1673ffffffffffffffffffffffffffffffffffffffff16815260200190815260200160002081905550816000808573ffffffffffffffffffffffffffffffffffffffff1673ffffffffffffffffffffffffffffffffffffffff16815260200190815260200160002060008282546114fe9190612112565b925050819055508273ffffffffffffffffffffffffffffffffffffffff168473ffffffffffffffffffffffffffffffffffffffff167fddf252ad1be2c89b69c2b068fc378daa952ba7f163c4a11628f55a4df523b3ef846040516115629190611b5b565b60405180910390a36115758484846119fb565b50505050565b61158361109b565b73ffffffffffffffffffffffffffffffffffffffff166115a1610b98565b73ffffffffffffffffffffffffffffffffffffffff16146115f7576040517f08c379a00000000000000000000000000000000000000000000000000000000081526004016115ee90612a40565b60405180910390fd5b565b600073ffffffffffffffffffffffffffffffffffffffff168273ffffffffffffffffffffffffffffffffffffffff161415611669576040517f08c379a000000000000000000000000000000000000000000000000000000000815260040161166090612aac565b60405180910390fd5b611675600083836119f6565b80600260008282546116879190612112565b92505081905550806000808473ffffffffffffffffffffffffffffffffffffffff1673ffffffffffffffffffffffffffffffffffffffff16815260200190815260200160002060008282546116dc9190612112565b925050819055508173ffffffffffffffffffffffffffffffffffffffff16600073ffffffffffffffffffffffffffffffffffffffff167fddf252ad1be2c89b69c2b068fc378daa952ba7f163c4a11628f55a4df523b3ef836040516117419190611b5b565b60405180910390a3611755600083836119fb565b5050565b600073ffffffffffffffffffffffffffffffffffffffff168273ffffffffffffffffffffffffffffffffffffffff1614156117c9576040517f08c379a00000000000000000000000000000000000000000000000000000000081526004016117c090612b3e565b60405180910390fd5b6117d5826000836119f6565b60008060008473ffffffffffffffffffffffffffffffffffffffff1673ffffffffffffffffffffffffffffffffffffffff1681526020019081526020016000205490508181101561185b576040517f08c379a000000000000000000000000000000000000000000000000000000000815260040161185290612bd0565b60405180910390fd5b8181036000808573ffffffffffffffffffffffffffffffffffffffff1673ffffffffffffffffffffffffffffffffffffffff1681526020019081526020016000208190555081600260008282546118b29190612380565b92505081905550600073ffffffffffffffffffffffffffffffffffffffff168373ffffffffffffffffffffffffffffffffffffffff167fddf252ad1be2c89b69c2b068fc378daa952ba7f163c4a11628f55a4df523b3ef846040516119179190611b5b565b60405180910390a361192b836000846119fb565b505050565b6000600560009054906101000a900473ffffffffffffffffffffffffffffffffffffffff16905081600560006101000a81548173ffffffffffffffffffffffffffffffffffffffff021916908373ffffffffffffffffffffffffffffffffffffffff1602179055508173ffffffffffffffffffffffffffffffffffffffff168173ffffffffffffffffffffffffffffffffffffffff167f8be0079c531659141344cd1fd0a4f28419497f9722a3daafe3b4186f6b6457e060405160405180910390a35050565b505050565b505050565b828054611a0c9061201f565b90600052602060002090601f016020900481019282611a2e5760008555611a75565b82601f10611a4757805160ff1916838001178555611a75565b82800160010185558215611a75579182015b82811115611a74578251825591602001919060010190611a59565b5b509050611a829190611a86565b5090565b5b80821115611a9f576000816000905550600101611a87565b5090565b6000604051905090565b600080fd5b600080fd5b600073ffffffffffffffffffffffffffffffffffffffff82169050919050565b6000611ae282611ab7565b9050919050565b611af281611ad7565b8114611afd57600080fd5b50565b600081359050611b0f81611ae9565b92915050565b600060208284031215611b2b57611b2a611aad565b5b6000611b3984828501611b00565b91505092915050565b6000819050919050565b611b5581611b42565b82525050565b6000602082019050611b706000830184611b4c565b92915050565b600081519050919050565b600082825260208201905092915050565b60005b83811015611bb0578082015181840152602081019050611b95565b83811115611bbf576000848401525b50505050565b6000601f19601f8301169050919050565b6000611be182611b76565b611beb8185611b81565b9350611bfb818560208601611b92565b611c0481611bc5565b840191505092915050565b60006020820190508181036000830152611c298184611bd6565b905092915050565b611c3a81611b42565b8114611c4557600080fd5b50565b600081359050611c5781611c31565b92915050565b60008060408385031215611c7457611c73611aad565b5b6000611c8285828601611b00565b9250506020611c9385828601611c48565b9150509250929050565b60008115159050919050565b611cb281611c9d565b82525050565b6000602082019050611ccd6000830184611ca9565b92915050565b600080600060608486031215611cec57611ceb611aad565b5b6000611cfa86828701611b00565b9350506020611d0b86828701611b00565b9250506040611d1c86828701611c48565b9150509250925092565b600060ff82169050919050565b611d3c81611d26565b82525050565b6000602082019050611d576000830184611d33565b92915050565b600060208284031215611d7357611d72611aad565b5b6000611d8184828501611c48565b91505092915050565b611d9381611ad7565b82525050565b6000602082019050611dae6000830184611d8a565b92915050565b6000611dbf82611ab7565b9050919050565b611dcf81611db4565b8114611dda57600080fd5b50565b600081359050611dec81611dc6565b92915050565b60008060408385031215611e0957611e08611aad565b5b6000611e1785828601611ddd565b9250506020611e2885828601611c48565b9150509250929050565b600080fd5b600080fd5b7f4e487b7100000000000000000000000000000000000000000000000000000000600052604160045260246000fd5b611e7482611bc5565b810181811067ffffffffffffffff82111715611e9357611e92611e3c565b5b80604052505050565b6000611ea6611aa3565b9050611eb28282611e6b565b919050565b600067ffffffffffffffff821115611ed257611ed1611e3c565b5b611edb82611bc5565b9050602081019050919050565b82818337600083830152505050565b6000611f0a611f0584611eb7565b611e9c565b905082815260208101848484011115611f2657611f25611e37565b5b611f31848285611ee8565b509392505050565b600082601f830112611f4e57611f4d611e32565b5b8135611f5e848260208601611ef7565b91505092915050565b600060208284031215611f7d57611f7c611aad565b5b600082013567ffffffffffffffff811115611f9b57611f9a611ab2565b5b611fa784828501611f39565b91505092915050565b60008060408385031215611fc757611fc6611aad565b5b6000611fd585828601611b00565b9250506020611fe685828601611b00565b9150509250929050565b7f4e487b7100000000000000000000000000000000000000000000000000000000600052602260045260246000fd5b6000600282049050600182168061203757607f821691505b6020821081141561204b5761204a611ff0565b5b50919050565b7f596f75206e65656420746f206465706f73697420736f6d6520616d6f756e742060008201527f6f66206d6f6e6579210000000000000000000000000000000000000000000000602082015250565b60006120ad602983611b81565b91506120b882612051565b604082019050919050565b600060208201905081810360008301526120dc816120a0565b9050919050565b7f4e487b7100000000000000000000000000000000000000000000000000000000600052601160045260246000fd5b600061211d82611b42565b915061212883611b42565b9250827fffffffffffffffffffffffffffffffffffffffffffffffffffffffffffffffff0382111561215d5761215c6120e3565b5b828201905092915050565b7f596f75206d7573742062652074686520636f6d6d756e6974792041646d696e2060008201527f746f2073656520616c6c2062616c616e6365732e000000000000000000000000602082015250565b60006121c4603483611b81565b91506121cf82612168565b604082019050919050565b600060208201905081810360008301526121f3816121b7565b9050919050565b7f4164646974696f6e616c20746f6b656e73206d696e7465642e00000000000000600082015250565b6000612230601983611b81565b915061223b826121fa565b602082019050919050565b600060408201905061225b6000830184611b4c565b818103602083015261226c81612223565b905092915050565b7f546f6b656e73206275726e65642e000000000000000000000000000000000000600082015250565b60006122aa600e83611b81565b91506122b582612274565b602082019050919050565b60006040820190506122d56000830184611b4c565b81810360208301526122e68161229d565b905092915050565b7f596f75206861766520696e7375666669656e742066756e647320746f20646f6e60008201527f6174650000000000000000000000000000000000000000000000000000000000602082015250565b600061234a602383611b81565b9150612355826122ee565b604082019050919050565b600060208201905081810360008301526123798161233d565b9050919050565b600061238b82611b42565b915061239683611b42565b9250828210156123a9576123a86120e3565b5b828203905092915050565b600081905092915050565b50565b60006123cf6000836123b4565b91506123da826123bf565b600082019050919050565b60006123f0826123c2565b9150819050919050565b7f4661696c656420746f2073656e64204574686572000000000000000000000000600082015250565b6000612430601483611b81565b915061243b826123fa565b602082019050919050565b6000602082019050818103600083015261245f81612423565b9050919050565b7f45524332303a2064656372656173656420616c6c6f77616e63652062656c6f7760008201527f207a65726f000000000000000000000000000000000000000000000000000000602082015250565b60006124c2602583611b81565b91506124cd82612466565b604082019050919050565b600060208201905081810360008301526124f1816124b5565b9050919050565b7f596f75206d7573742062652074686520636f6d6d756e6974792041646d696e2060008201527f746f2073657420746865206e616d65206f662074686520636f6d6d756e697479602082015250565b6000612554604083611b81565b915061255f826124f8565b604082019050919050565b6000602082019050818103600083015261258381612547565b9050919050565b7f596f75206861766520696e7375666669656e742066756e647320746f2077697460008201527f6864726177000000000000000000000000000000000000000000000000000000602082015250565b60006125e6602583611b81565b91506125f18261258a565b604082019050919050565b60006020820190508181036000830152612615816125d9565b9050919050565b7f4f776e61626c653a206e6577206f776e657220697320746865207a65726f206160008201527f6464726573730000000000000000000000000000000000000000000000000000602082015250565b6000612678602683611b81565b91506126838261261c565b604082019050919050565b600060208201905081810360008301526126a78161266b565b9050919050565b7f45524332303a20617070726f76652066726f6d20746865207a65726f2061646460008201527f7265737300000000000000000000000000000000000000000000000000000000602082015250565b600061270a602483611b81565b9150612715826126ae565b604082019050919050565b60006020820190508181036000830152612739816126fd565b9050919050565b7f45524332303a20617070726f766520746f20746865207a65726f20616464726560008201527f7373000000000000000000000000000000000000000000000000000000000000602082015250565b600061279c602283611b81565b91506127a782612740565b604082019050919050565b600060208201905081810360008301526127cb8161278f565b9050919050565b7f45524332303a20696e73756666696369656e7420616c6c6f77616e6365000000600082015250565b6000612808601d83611b81565b9150612813826127d2565b602082019050919050565b60006020820190508181036000830152612837816127fb565b9050919050565b7f45524332303a207472616e736665722066726f6d20746865207a65726f20616460008201527f6472657373000000000000000000000000000000000000000000000000000000602082015250565b600061289a602583611b81565b91506128a58261283e565b604082019050919050565b600060208201905081810360008301526128c98161288d565b9050919050565b7f45524332303a207472616e7366657220746f20746865207a65726f206164647260008201527f6573730000000000000000000000000000000000000000000000000000000000602082015250565b600061292c602383611b81565b9150612937826128d0565b604082019050919050565b6000602082019050818103600083015261295b8161291f565b9050919050565b7f45524332303a207472616e7366657220616d6f756e742065786365656473206260008201527f616c616e63650000000000000000000000000000000000000000000000000000602082015250565b60006129be602683611b81565b91506129c982612962565b604082019050919050565b600060208201905081810360008301526129ed816129b1565b9050919050565b7f4f776e61626c653a2063616c6c6572206973206e6f7420746865206f776e6572600082015250565b6000612a2a602083611b81565b9150612a35826129f4565b602082019050919050565b60006020820190508181036000830152612a5981612a1d565b9050919050565b7f45524332303a206d696e7420746f20746865207a65726f206164647265737300600082015250565b6000612a96601f83611b81565b9150612aa182612a60565b602082019050919050565b60006020820190508181036000830152612ac581612a89565b9050919050565b7f45524332303a206275726e2066726f6d20746865207a65726f2061646472657360008201527f7300000000000000000000000000000000000000000000000000000000000000602082015250565b6000612b28602183611b81565b9150612b3382612acc565b604082019050919050565b60006020820190508181036000830152612b5781612b1b565b9050919050565b7f45524332303a206275726e20616d6f756e7420657863656564732062616c616e60008201527f6365000000000000000000000000000000000000000000000000000000000000602082015250565b6000612bba602283611b81565b9150612bc582612b5e565b604082019050919050565b60006020820190508181036000830152612be981612bad565b905091905056fea2646970667358221220044c71990acfb2d5ed7864a4264c60cec787cf3a02ad6dad6aa72847005edf9364736f6c63430008090033",
  "linkReferences": {},
  "deployedLinkReferences": {}
}