{
  "_format": "hh-sol-artifact-1",
  "contractName": "Bank",
  "sourceName": "contracts/BankContract.sol",
  "abi": [
    {
      "inputs": [],
      "stateMutability": "nonpayable",
      "type": "constructor"
    },
    {
      "stateMutability": "payable",
      "type": "fallback"
    },
    {
      "inputs": [
        {
          "internalType": "address payable",
          "name": "_to",
          "type": "address"
        },
        {
          "internalType": "uint256",
          "name": "_fund",
          "type": "uint256"
        }
      ],
      "name": "DonateFunds",
      "outputs": [],
      "stateMutability": "payable",
      "type": "function"
    },
    {
      "inputs": [],
      "name": "communityAdmin",
      "outputs": [
        {
          "internalType": "address",
          "name": "",
          "type": "address"
        }
      ],
      "stateMutability": "view",
      "type": "function"
    },
    {
      "inputs": [],
      "name": "communityName",
      "outputs": [
        {
          "internalType": "string",
          "name": "",
          "type": "string"
        }
      ],
      "stateMutability": "view",
      "type": "function"
    },
    {
      "inputs": [],
      "name": "depositMoney",
      "outputs": [],
      "stateMutability": "payable",
      "type": "function"
    },
    {
      "inputs": [],
      "name": "getCommunityBalance",
      "outputs": [
        {
          "internalType": "uint256",
          "name": "",
          "type": "uint256"
        }
      ],
      "stateMutability": "view",
      "type": "function"
    },
    {
      "inputs": [],
      "name": "getUserBalance",
      "outputs": [
        {
          "internalType": "uint256",
          "name": "",
          "type": "uint256"
        }
      ],
      "stateMutability": "view",
      "type": "function"
    },
    {
      "inputs": [
        {
          "internalType": "string",
          "name": "_name",
          "type": "string"
        }
      ],
      "name": "setCommunityName",
      "outputs": [],
      "stateMutability": "nonpayable",
      "type": "function"
    },
    {
      "inputs": [
        {
          "internalType": "address",
          "name": "",
          "type": "address"
        }
      ],
      "name": "userBalance",
      "outputs": [
        {
          "internalType": "uint256",
          "name": "",
          "type": "uint256"
        }
      ],
      "stateMutability": "view",
      "type": "function"
    },
    {
      "inputs": [
        {
          "internalType": "address payable",
          "name": "_to",
          "type": "address"
        },
        {
          "internalType": "uint256",
          "name": "_total",
          "type": "uint256"
        }
      ],
      "name": "withdrawMoney",
      "outputs": [],
      "stateMutability": "nonpayable",
      "type": "function"
    },
    {
      "stateMutability": "payable",
      "type": "receive"
    }
  ],
  "bytecode": "0x608060405234801561001057600080fd5b50336000806101000a81548173ffffffffffffffffffffffffffffffffffffffff021916908373ffffffffffffffffffffffffffffffffffffffff160217905550611059806100606000396000f3fe60806040526004361061008a5760003560e01c8063743295ea11610059578063743295ea14610130578063b7013dc11461014c578063b9bfdf6914610177578063c6d572ae146101a0578063f274c897146101cb57610091565b80630103c92b1461009357806316c05aa2146100d05780632083ec64146100da5780635fac917a1461010557610091565b3661009157005b005b34801561009f57600080fd5b506100ba60048036038101906100b591906108a1565b6101f4565b6040516100c791906108e7565b60405180910390f35b6100d861020c565b005b3480156100e657600080fd5b506100ef6102a8565b6040516100fc91906108e7565b60405180910390f35b34801561011157600080fd5b5061011a61033f565b6040516101279190610911565b60405180910390f35b61014a60048036038101906101459190610996565b610363565b005b34801561015857600080fd5b506101616104ec565b60405161016e91906108e7565b60405180910390f35b34801561018357600080fd5b5061019e60048036038101906101999190610b1c565b610533565b005b3480156101ac57600080fd5b506101b56105db565b6040516101c29190610bed565b60405180910390f35b3480156101d757600080fd5b506101f260048036038101906101ed9190610996565b610669565b005b60026020528060005260406000206000915090505481565b6000341415610250576040517f08c379a000000000000000000000000000000000000000000000000000000000815260040161024790610c81565b60405180910390fd5b34600260003373ffffffffffffffffffffffffffffffffffffffff1673ffffffffffffffffffffffffffffffffffffffff168152602001908152602001600020600082825461029f9190610cd0565b92505081905550565b60008060009054906101000a900473ffffffffffffffffffffffffffffffffffffffff1673ffffffffffffffffffffffffffffffffffffffff163373ffffffffffffffffffffffffffffffffffffffff1614610339576040517f08c379a000000000000000000000000000000000000000000000000000000000815260040161033090610d98565b60405180910390fd5b47905090565b60008054906101000a900473ffffffffffffffffffffffffffffffffffffffff1681565b600260003373ffffffffffffffffffffffffffffffffffffffff1673ffffffffffffffffffffffffffffffffffffffff168152602001908152602001600020548111156103e5576040517f08c379a00000000000000000000000000000000000000000000000000000000081526004016103dc90610e2a565b60405180910390fd5b80600260003373ffffffffffffffffffffffffffffffffffffffff1673ffffffffffffffffffffffffffffffffffffffff16815260200190815260200160002060008282546104349190610e4a565b9250508190555060008273ffffffffffffffffffffffffffffffffffffffff168260405161046190610eaf565b60006040518083038185875af1925050503d806000811461049e576040519150601f19603f3d011682016040523d82523d6000602084013e6104a3565b606091505b50509050806104e7576040517f08c379a00000000000000000000000000000000000000000000000000000000081526004016104de90610f10565b60405180910390fd5b505050565b6000600260003373ffffffffffffffffffffffffffffffffffffffff1673ffffffffffffffffffffffffffffffffffffffff16815260200190815260200160002054905090565b60008054906101000a900473ffffffffffffffffffffffffffffffffffffffff1673ffffffffffffffffffffffffffffffffffffffff163373ffffffffffffffffffffffffffffffffffffffff16146105c1576040517f08c379a00000000000000000000000000000000000000000000000000000000081526004016105b890610fa2565b60405180910390fd5b80600190805190602001906105d792919061078c565b5050565b600180546105e890610ff1565b80601f016020809104026020016040519081016040528092919081815260200182805461061490610ff1565b80156106615780601f1061063657610100808354040283529160200191610661565b820191906000526020600020905b81548152906001019060200180831161064457829003601f168201915b505050505081565b600260003373ffffffffffffffffffffffffffffffffffffffff1673ffffffffffffffffffffffffffffffffffffffff168152602001908152602001600020548111156106eb576040517f08c379a00000000000000000000000000000000000000000000000000000000081526004016106e290610e2a565b60405180910390fd5b80600260003373ffffffffffffffffffffffffffffffffffffffff1673ffffffffffffffffffffffffffffffffffffffff168152602001908152602001600020600082825461073a9190610e4a565b925050819055508173ffffffffffffffffffffffffffffffffffffffff166108fc829081150290604051600060405180830381858888f19350505050158015610787573d6000803e3d6000fd5b505050565b82805461079890610ff1565b90600052602060002090601f0160209004810192826107ba5760008555610801565b82601f106107d357805160ff1916838001178555610801565b82800160010185558215610801579182015b828111156108005782518255916020019190600101906107e5565b5b50905061080e9190610812565b5090565b5b8082111561082b576000816000905550600101610813565b5090565b6000604051905090565b600080fd5b600080fd5b600073ffffffffffffffffffffffffffffffffffffffff82169050919050565b600061086e82610843565b9050919050565b61087e81610863565b811461088957600080fd5b50565b60008135905061089b81610875565b92915050565b6000602082840312156108b7576108b6610839565b5b60006108c58482850161088c565b91505092915050565b6000819050919050565b6108e1816108ce565b82525050565b60006020820190506108fc60008301846108d8565b92915050565b61090b81610863565b82525050565b60006020820190506109266000830184610902565b92915050565b600061093782610843565b9050919050565b6109478161092c565b811461095257600080fd5b50565b6000813590506109648161093e565b92915050565b610973816108ce565b811461097e57600080fd5b50565b6000813590506109908161096a565b92915050565b600080604083850312156109ad576109ac610839565b5b60006109bb85828601610955565b92505060206109cc85828601610981565b9150509250929050565b600080fd5b600080fd5b6000601f19601f8301169050919050565b7f4e487b7100000000000000000000000000000000000000000000000000000000600052604160045260246000fd5b610a29826109e0565b810181811067ffffffffffffffff82111715610a4857610a476109f1565b5b80604052505050565b6000610a5b61082f565b9050610a678282610a20565b919050565b600067ffffffffffffffff821115610a8757610a866109f1565b5b610a90826109e0565b9050602081019050919050565b82818337600083830152505050565b6000610abf610aba84610a6c565b610a51565b905082815260208101848484011115610adb57610ada6109db565b5b610ae6848285610a9d565b509392505050565b600082601f830112610b0357610b026109d6565b5b8135610b13848260208601610aac565b91505092915050565b600060208284031215610b3257610b31610839565b5b600082013567ffffffffffffffff811115610b5057610b4f61083e565b5b610b5c84828501610aee565b91505092915050565b600081519050919050565b600082825260208201905092915050565b60005b83811015610b9f578082015181840152602081019050610b84565b83811115610bae576000848401525b50505050565b6000610bbf82610b65565b610bc98185610b70565b9350610bd9818560208601610b81565b610be2816109e0565b840191505092915050565b60006020820190508181036000830152610c078184610bb4565b905092915050565b7f596f75206e65656420746f206465706f73697420736f6d6520616d6f756e742060008201527f6f66206d6f6e6579210000000000000000000000000000000000000000000000602082015250565b6000610c6b602983610b70565b9150610c7682610c0f565b604082019050919050565b60006020820190508181036000830152610c9a81610c5e565b9050919050565b7f4e487b7100000000000000000000000000000000000000000000000000000000600052601160045260246000fd5b6000610cdb826108ce565b9150610ce6836108ce565b9250827fffffffffffffffffffffffffffffffffffffffffffffffffffffffffffffffff03821115610d1b57610d1a610ca1565b5b828201905092915050565b7f596f75206d7573742062652074686520636f6d6d756e6974792041646d696e2060008201527f746f2073656520616c6c2062616c616e6365732e000000000000000000000000602082015250565b6000610d82603483610b70565b9150610d8d82610d26565b604082019050919050565b60006020820190508181036000830152610db181610d75565b9050919050565b7f596f75206861766520696e7375666669656e742066756e647320746f2077697460008201527f6864726177000000000000000000000000000000000000000000000000000000602082015250565b6000610e14602583610b70565b9150610e1f82610db8565b604082019050919050565b60006020820190508181036000830152610e4381610e07565b9050919050565b6000610e55826108ce565b9150610e60836108ce565b925082821015610e7357610e72610ca1565b5b828203905092915050565b600081905092915050565b50565b6000610e99600083610e7e565b9150610ea482610e89565b600082019050919050565b6000610eba82610e8c565b9150819050919050565b7f4661696c656420746f2073656e64204574686572000000000000000000000000600082015250565b6000610efa601483610b70565b9150610f0582610ec4565b602082019050919050565b60006020820190508181036000830152610f2981610eed565b9050919050565b7f596f75206d7573742062652074686520636f6d6d756e6974792041646d696e2060008201527f746f2073657420746865206e616d65206f662074686520636f6d6d756e697479602082015250565b6000610f8c604083610b70565b9150610f9782610f30565b604082019050919050565b60006020820190508181036000830152610fbb81610f7f565b9050919050565b7f4e487b7100000000000000000000000000000000000000000000000000000000600052602260045260246000fd5b6000600282049050600182168061100957607f821691505b6020821081141561101d5761101c610fc2565b5b5091905056fea26469706673582212201e67f63ed06019564d23f926cfdca5f40205d038fcef527ca0449815e38d545864736f6c63430008090033",
  "linkReferences": {},
  "deployedLinkReferences": {}
}